{
	"contracts/Voting.sol": {
		"Voting": {
			"abi": [
				{
					"inputs": [
						{
							"internalType": "address",
							"name": "_candidateAddress",
							"type": "address"
						},
						{
							"internalType": "string",
							"name": "_candidateName",
							"type": "string"
						},
						{
							"internalType": "string",
							"name": "_candidtateParty",
							"type": "string"
						}
					],
					"name": "AddCandidate",
					"outputs": [],
					"stateMutability": "nonpayable",
					"type": "function"
				},
				{
					"inputs": [],
					"name": "ViewCandidate",
					"outputs": [
						{
							"components": [
								{
									"internalType": "address",
									"name": "CandidateAddress",
									"type": "address"
								},
								{
									"internalType": "string",
									"name": "CandidateName",
									"type": "string"
								},
								{
									"internalType": "string",
									"name": "CandidateParty",
									"type": "string"
								},
								{
									"internalType": "address[]",
									"name": "Voters",
									"type": "address[]"
								}
							],
							"internalType": "struct Voting.VotingDetails[]",
							"name": "",
							"type": "tuple[]"
						}
					],
					"stateMutability": "view",
					"type": "function"
				},
				{
					"inputs": [
						{
							"internalType": "uint256",
							"name": "_index",
							"type": "uint256"
						}
					],
					"name": "VoteCandidate",
					"outputs": [],
					"stateMutability": "nonpayable",
					"type": "function"
				}
			],
			"devdoc": {
				"kind": "dev",
				"methods": {},
				"version": 1
			},
			"evm": {
				"assembly": "    /* \"contracts/Voting.sol\":57:1193  contract Voting{... */\n  mstore(0x40, 0x80)\n  callvalue\n  dup1\n  iszero\n  tag_1\n  jumpi\n  0x00\n  dup1\n  revert\ntag_1:\n  pop\n  dataSize(sub_0)\n  dup1\n  dataOffset(sub_0)\n  0x00\n  codecopy\n  0x00\n  return\nstop\n\nsub_0: assembly {\n        /* \"contracts/Voting.sol\":57:1193  contract Voting{... */\n      mstore(0x40, 0x80)\n      callvalue\n      dup1\n      iszero\n      tag_1\n      jumpi\n      0x00\n      dup1\n      revert\n    tag_1:\n      pop\n      jumpi(tag_2, lt(calldatasize, 0x04))\n      shr(0xe0, calldataload(0x00))\n      dup1\n      0x529d4992\n      eq\n      tag_3\n      jumpi\n      dup1\n      0xbd47a8dd\n      eq\n      tag_4\n      jumpi\n      dup1\n      0xd7d69061\n      eq\n      tag_5\n      jumpi\n    tag_2:\n      0x00\n      dup1\n      revert\n        /* \"contracts/Voting.sol\":963:1191  function VoteCandidate (uint256 _index) external {... */\n    tag_3:\n      tag_6\n      0x04\n      dup1\n      calldatasize\n      sub\n      dup2\n      add\n      swap1\n      tag_7\n      swap2\n      swap1\n      tag_8\n      jump\t// in\n    tag_7:\n      tag_9\n      jump\t// in\n    tag_6:\n      stop\n        /* \"contracts/Voting.sol\":416:837  function AddCandidate(address _candidateAddress, string memory _candidateName, string memory _candidtateParty) external  onlyOwner{... */\n    tag_4:\n      tag_10\n      0x04\n      dup1\n      calldatasize\n      sub\n      dup2\n      add\n      swap1\n      tag_11\n      swap2\n      swap1\n      tag_12\n      jump\t// in\n    tag_11:\n      tag_13\n      jump\t// in\n    tag_10:\n      stop\n        /* \"contracts/Voting.sol\":843:957  function ViewCandidate() external view returns (VotingDetails[] memory) {... */\n    tag_5:\n      tag_14\n      tag_15\n      jump\t// in\n    tag_14:\n      mload(0x40)\n      tag_16\n      swap2\n      swap1\n      tag_17\n      jump\t// in\n    tag_16:\n      mload(0x40)\n      dup1\n      swap2\n      sub\n      swap1\n      return\n        /* \"contracts/Voting.sol\":963:1191  function VoteCandidate (uint256 _index) external {... */\n    tag_9:\n        /* \"contracts/Voting.sol\":1022:1048  VotingDetails storage vote */\n      0x00\n        /* \"contracts/Voting.sol\":1051:1069  votingDetailsArray */\n      0x02\n        /* \"contracts/Voting.sol\":1070:1076  _index */\n      dup3\n        /* \"contracts/Voting.sol\":1051:1077  votingDetailsArray[_index] */\n      dup2\n      sload\n      dup2\n      lt\n      tag_19\n      jumpi\n      tag_20\n      tag_21\n      jump\t// in\n    tag_20:\n    tag_19:\n      swap1\n      0x00\n      mstore\n      keccak256(0x00, 0x20)\n      swap1\n      0x04\n      mul\n      add\n        /* \"contracts/Voting.sol\":1022:1077  VotingDetails storage vote = votingDetailsArray[_index] */\n      swap1\n      pop\n        /* \"contracts/Voting.sol\":1096:1104  hasVoted */\n      0x01\n        /* \"contracts/Voting.sol\":1096:1116  hasVoted[msg.sender] */\n      0x00\n        /* \"contracts/Voting.sol\":1105:1115  msg.sender */\n      caller\n        /* \"contracts/Voting.sol\":1096:1116  hasVoted[msg.sender] */\n      0xffffffffffffffffffffffffffffffffffffffff\n      and\n      0xffffffffffffffffffffffffffffffffffffffff\n      and\n      dup2\n      mstore\n      0x20\n      add\n      swap1\n      dup2\n      mstore\n      0x20\n      add\n      0x00\n      keccak256\n      0x00\n      swap1\n      sload\n      swap1\n      0x0100\n      exp\n      swap1\n      div\n      0xff\n      and\n        /* \"contracts/Voting.sol\":1095:1116  !hasVoted[msg.sender] */\n      iszero\n        /* \"contracts/Voting.sol\":1087:1136  require(!hasVoted[msg.sender],\"can't sign twice\") */\n      tag_23\n      jumpi\n      mload(0x40)\n      0x08c379a000000000000000000000000000000000000000000000000000000000\n      dup2\n      mstore\n      0x04\n      add\n      tag_24\n      swap1\n      tag_25\n      jump\t// in\n    tag_24:\n      mload(0x40)\n      dup1\n      swap2\n      sub\n      swap1\n      revert\n    tag_23:\n        /* \"contracts/Voting.sol\":1146:1150  vote */\n      dup1\n        /* \"contracts/Voting.sol\":1146:1157  vote.Voters */\n      0x03\n      add\n        /* \"contracts/Voting.sol\":1163:1173  msg.sender */\n      caller\n        /* \"contracts/Voting.sol\":1146:1174  vote.Voters.push(msg.sender) */\n      swap1\n      dup1\n      0x01\n      dup2\n      sload\n      add\n      dup1\n      dup3\n      sstore\n      dup1\n      swap2\n      pop\n      pop\n      0x01\n      swap1\n      sub\n      swap1\n      0x00\n      mstore\n      keccak256(0x00, 0x20)\n      add\n      0x00\n      swap1\n      swap2\n      swap1\n      swap2\n      swap1\n      swap2\n      0x0100\n      exp\n      dup2\n      sload\n      dup2\n      0xffffffffffffffffffffffffffffffffffffffff\n      mul\n      not\n      and\n      swap1\n      dup4\n      0xffffffffffffffffffffffffffffffffffffffff\n      and\n      mul\n      or\n      swap1\n      sstore\n      pop\n        /* \"contracts/Voting.sol\":1012:1191  {... */\n      pop\n        /* \"contracts/Voting.sol\":963:1191  function VoteCandidate (uint256 _index) external {... */\n      pop\n      jump\t// out\n        /* \"contracts/Voting.sol\":416:837  function AddCandidate(address _candidateAddress, string memory _candidateName, string memory _candidtateParty) external  onlyOwner{... */\n    tag_13:\n        /* \"contracts/Voting.sol\":386:391  owner */\n      0x00\n      dup1\n      sload\n      swap1\n      0x0100\n      exp\n      swap1\n      div\n      0xffffffffffffffffffffffffffffffffffffffff\n      and\n        /* \"contracts/Voting.sol\":372:391  msg.sender == owner */\n      0xffffffffffffffffffffffffffffffffffffffff\n      and\n        /* \"contracts/Voting.sol\":372:382  msg.sender */\n      caller\n        /* \"contracts/Voting.sol\":372:391  msg.sender == owner */\n      0xffffffffffffffffffffffffffffffffffffffff\n      and\n      eq\n        /* \"contracts/Voting.sol\":364:392  require(msg.sender == owner) */\n      tag_28\n      jumpi\n      0x00\n      dup1\n      revert\n    tag_28:\n        /* \"contracts/Voting.sol\":561:595  VotingDetails memory votingdetails */\n      tag_30\n      tag_31\n      jump\t// in\n    tag_30:\n        /* \"contracts/Voting.sol\":643:660  _candidateAddress */\n      dup4\n        /* \"contracts/Voting.sol\":610:623  votingdetails */\n      dup2\n        /* \"contracts/Voting.sol\":610:640  votingdetails.CandidateAddress */\n      0x00\n      add\n        /* \"contracts/Voting.sol\":610:660  votingdetails.CandidateAddress = _candidateAddress */\n      swap1\n      0xffffffffffffffffffffffffffffffffffffffff\n      and\n      swap1\n      dup2\n      0xffffffffffffffffffffffffffffffffffffffff\n      and\n      dup2\n      mstore\n      pop\n      pop\n        /* \"contracts/Voting.sol\":703:717  _candidateName */\n      dup3\n        /* \"contracts/Voting.sol\":674:687  votingdetails */\n      dup2\n        /* \"contracts/Voting.sol\":674:701  votingdetails.CandidateName */\n      0x20\n      add\n        /* \"contracts/Voting.sol\":674:717  votingdetails.CandidateName =_candidateName */\n      dup2\n      swap1\n      mstore\n      pop\n        /* \"contracts/Voting.sol\":762:778  _candidtateParty */\n      dup2\n        /* \"contracts/Voting.sol\":731:744  votingdetails */\n      dup2\n        /* \"contracts/Voting.sol\":731:759  votingdetails.CandidateParty */\n      0x40\n      add\n        /* \"contracts/Voting.sol\":731:778  votingdetails.CandidateParty = _candidtateParty */\n      dup2\n      swap1\n      mstore\n      pop\n        /* \"contracts/Voting.sol\":792:810  votingDetailsArray */\n      0x02\n        /* \"contracts/Voting.sol\":816:829  votingdetails */\n      dup2\n        /* \"contracts/Voting.sol\":792:830  votingDetailsArray.push(votingdetails) */\n      swap1\n      dup1\n      0x01\n      dup2\n      sload\n      add\n      dup1\n      dup3\n      sstore\n      dup1\n      swap2\n      pop\n      pop\n      0x01\n      swap1\n      sub\n      swap1\n      0x00\n      mstore\n      keccak256(0x00, 0x20)\n      swap1\n      0x04\n      mul\n      add\n      0x00\n      swap1\n      swap2\n      swap1\n      swap2\n      swap1\n      swap2\n      pop\n      0x00\n      dup3\n      add\n      mload\n      dup2\n      0x00\n      add\n      exp(0x0100, 0x00)\n      dup2\n      sload\n      dup2\n      0xffffffffffffffffffffffffffffffffffffffff\n      mul\n      not\n      and\n      swap1\n      dup4\n      0xffffffffffffffffffffffffffffffffffffffff\n      and\n      mul\n      or\n      swap1\n      sstore\n      pop\n      0x20\n      dup3\n      add\n      mload\n      dup2\n      0x01\n      add\n      swap1\n      dup2\n      tag_33\n      swap2\n      swap1\n      tag_34\n      jump\t// in\n    tag_33:\n      pop\n      0x40\n      dup3\n      add\n      mload\n      dup2\n      0x02\n      add\n      swap1\n      dup2\n      tag_35\n      swap2\n      swap1\n      tag_34\n      jump\t// in\n    tag_35:\n      pop\n      0x60\n      dup3\n      add\n      mload\n      dup2\n      0x03\n      add\n      swap1\n      dup1\n      mload\n      swap1\n      0x20\n      add\n      swap1\n      tag_36\n      swap3\n      swap2\n      swap1\n      tag_37\n      jump\t// in\n    tag_36:\n      pop\n      pop\n      pop\n        /* \"contracts/Voting.sol\":546:837  {... */\n      pop\n        /* \"contracts/Voting.sol\":416:837  function AddCandidate(address _candidateAddress, string memory _candidateName, string memory _candidtateParty) external  onlyOwner{... */\n      pop\n      pop\n      pop\n      jump\t// out\n        /* \"contracts/Voting.sol\":843:957  function ViewCandidate() external view returns (VotingDetails[] memory) {... */\n    tag_15:\n        /* \"contracts/Voting.sol\":891:913  VotingDetails[] memory */\n      0x60\n        /* \"contracts/Voting.sol\":932:950  votingDetailsArray */\n      0x02\n        /* \"contracts/Voting.sol\":925:950  return votingDetailsArray */\n      dup1\n      sload\n      dup1\n      0x20\n      mul\n      0x20\n      add\n      mload(0x40)\n      swap1\n      dup2\n      add\n      0x40\n      mstore\n      dup1\n      swap3\n      swap2\n      swap1\n      dup2\n      dup2\n      mstore\n      0x20\n      add\n      0x00\n      swap1\n    tag_39:\n      dup3\n      dup3\n      lt\n      iszero\n      tag_40\n      jumpi\n      dup4\n      dup3\n      swap1\n      0x00\n      mstore\n      keccak256(0x00, 0x20)\n      swap1\n      0x04\n      mul\n      add\n      mload(0x40)\n      dup1\n      0x80\n      add\n      0x40\n      mstore\n      swap1\n      dup2\n      0x00\n      dup3\n      add\n      0x00\n      swap1\n      sload\n      swap1\n      0x0100\n      exp\n      swap1\n      div\n      0xffffffffffffffffffffffffffffffffffffffff\n      and\n      0xffffffffffffffffffffffffffffffffffffffff\n      and\n      0xffffffffffffffffffffffffffffffffffffffff\n      and\n      dup2\n      mstore\n      0x20\n      add\n      0x01\n      dup3\n      add\n      dup1\n      sload\n      tag_42\n      swap1\n      tag_43\n      jump\t// in\n    tag_42:\n      dup1\n      0x1f\n      add\n      0x20\n      dup1\n      swap2\n      div\n      mul\n      0x20\n      add\n      mload(0x40)\n      swap1\n      dup2\n      add\n      0x40\n      mstore\n      dup1\n      swap3\n      swap2\n      swap1\n      dup2\n      dup2\n      mstore\n      0x20\n      add\n      dup3\n      dup1\n      sload\n      tag_44\n      swap1\n      tag_43\n      jump\t// in\n    tag_44:\n      dup1\n      iszero\n      tag_45\n      jumpi\n      dup1\n      0x1f\n      lt\n      tag_46\n      jumpi\n      0x0100\n      dup1\n      dup4\n      sload\n      div\n      mul\n      dup4\n      mstore\n      swap2\n      0x20\n      add\n      swap2\n      jump(tag_45)\n    tag_46:\n      dup3\n      add\n      swap2\n      swap1\n      0x00\n      mstore\n      keccak256(0x00, 0x20)\n      swap1\n    tag_47:\n      dup2\n      sload\n      dup2\n      mstore\n      swap1\n      0x01\n      add\n      swap1\n      0x20\n      add\n      dup1\n      dup4\n      gt\n      tag_47\n      jumpi\n      dup3\n      swap1\n      sub\n      0x1f\n      and\n      dup3\n      add\n      swap2\n    tag_45:\n      pop\n      pop\n      pop\n      pop\n      pop\n      dup2\n      mstore\n      0x20\n      add\n      0x02\n      dup3\n      add\n      dup1\n      sload\n      tag_48\n      swap1\n      tag_43\n      jump\t// in\n    tag_48:\n      dup1\n      0x1f\n      add\n      0x20\n      dup1\n      swap2\n      div\n      mul\n      0x20\n      add\n      mload(0x40)\n      swap1\n      dup2\n      add\n      0x40\n      mstore\n      dup1\n      swap3\n      swap2\n      swap1\n      dup2\n      dup2\n      mstore\n      0x20\n      add\n      dup3\n      dup1\n      sload\n      tag_49\n      swap1\n      tag_43\n      jump\t// in\n    tag_49:\n      dup1\n      iszero\n      tag_50\n      jumpi\n      dup1\n      0x1f\n      lt\n      tag_51\n      jumpi\n      0x0100\n      dup1\n      dup4\n      sload\n      div\n      mul\n      dup4\n      mstore\n      swap2\n      0x20\n      add\n      swap2\n      jump(tag_50)\n    tag_51:\n      dup3\n      add\n      swap2\n      swap1\n      0x00\n      mstore\n      keccak256(0x00, 0x20)\n      swap1\n    tag_52:\n      dup2\n      sload\n      dup2\n      mstore\n      swap1\n      0x01\n      add\n      swap1\n      0x20\n      add\n      dup1\n      dup4\n      gt\n      tag_52\n      jumpi\n      dup3\n      swap1\n      sub\n      0x1f\n      and\n      dup3\n      add\n      swap2\n    tag_50:\n      pop\n      pop\n      pop\n      pop\n      pop\n      dup2\n      mstore\n      0x20\n      add\n      0x03\n      dup3\n      add\n      dup1\n      sload\n      dup1\n      0x20\n      mul\n      0x20\n      add\n      mload(0x40)\n      swap1\n      dup2\n      add\n      0x40\n      mstore\n      dup1\n      swap3\n      swap2\n      swap1\n      dup2\n      dup2\n      mstore\n      0x20\n      add\n      dup3\n      dup1\n      sload\n      dup1\n      iszero\n      tag_53\n      jumpi\n      0x20\n      mul\n      dup3\n      add\n      swap2\n      swap1\n      0x00\n      mstore\n      keccak256(0x00, 0x20)\n      swap1\n    tag_54:\n      dup2\n      0x00\n      swap1\n      sload\n      swap1\n      0x0100\n      exp\n      swap1\n      div\n      0xffffffffffffffffffffffffffffffffffffffff\n      and\n      0xffffffffffffffffffffffffffffffffffffffff\n      and\n      dup2\n      mstore\n      0x20\n      add\n      swap1\n      0x01\n      add\n      swap1\n      dup1\n      dup4\n      gt\n      tag_54\n      jumpi\n    tag_53:\n      pop\n      pop\n      pop\n      pop\n      pop\n      dup2\n      mstore\n      pop\n      pop\n      dup2\n      mstore\n      0x20\n      add\n      swap1\n      0x01\n      add\n      swap1\n      jump(tag_39)\n    tag_40:\n      pop\n      pop\n      pop\n      pop\n      swap1\n      pop\n        /* \"contracts/Voting.sol\":843:957  function ViewCandidate() external view returns (VotingDetails[] memory) {... */\n      swap1\n      jump\t// out\n    tag_31:\n      mload(0x40)\n      dup1\n      0x80\n      add\n      0x40\n      mstore\n      dup1\n      and(0xffffffffffffffffffffffffffffffffffffffff, 0x00)\n      dup2\n      mstore\n      0x20\n      add\n      0x60\n      dup2\n      mstore\n      0x20\n      add\n      0x60\n      dup2\n      mstore\n      0x20\n      add\n      0x60\n      dup2\n      mstore\n      pop\n      swap1\n      jump\t// out\n    tag_37:\n      dup3\n      dup1\n      sload\n      dup3\n      dup3\n      sstore\n      swap1\n      0x00\n      mstore\n      keccak256(0x00, 0x20)\n      swap1\n      dup2\n      add\n      swap3\n      dup3\n      iszero\n      tag_55\n      jumpi\n      swap2\n      0x20\n      mul\n      dup3\n      add\n    tag_56:\n      dup3\n      dup2\n      gt\n      iszero\n      tag_57\n      jumpi\n      dup3\n      mload\n      dup3\n      exp(0x0100, 0x00)\n      dup2\n      sload\n      dup2\n      0xffffffffffffffffffffffffffffffffffffffff\n      mul\n      not\n      and\n      swap1\n      dup4\n      0xffffffffffffffffffffffffffffffffffffffff\n      and\n      mul\n      or\n      swap1\n      sstore\n      pop\n      swap2\n      0x20\n      add\n      swap2\n      swap1\n      0x01\n      add\n      swap1\n      jump(tag_56)\n    tag_57:\n    tag_55:\n      pop\n      swap1\n      pop\n      tag_58\n      swap2\n      swap1\n      tag_59\n      jump\t// in\n    tag_58:\n      pop\n      swap1\n      jump\t// out\n    tag_59:\n    tag_60:\n      dup1\n      dup3\n      gt\n      iszero\n      tag_61\n      jumpi\n      0x00\n      dup2\n      0x00\n      swap1\n      sstore\n      pop\n      0x01\n      add\n      jump(tag_60)\n    tag_61:\n      pop\n      swap1\n      jump\t// out\n        /* \"#utility.yul\":7:82   */\n    tag_62:\n        /* \"#utility.yul\":40:46   */\n      0x00\n        /* \"#utility.yul\":73:75   */\n      0x40\n        /* \"#utility.yul\":67:76   */\n      mload\n        /* \"#utility.yul\":57:76   */\n      swap1\n      pop\n        /* \"#utility.yul\":7:82   */\n      swap1\n      jump\t// out\n        /* \"#utility.yul\":88:205   */\n    tag_63:\n        /* \"#utility.yul\":197:198   */\n      0x00\n        /* \"#utility.yul\":194:195   */\n      dup1\n        /* \"#utility.yul\":187:199   */\n      revert\n        /* \"#utility.yul\":211:328   */\n    tag_64:\n        /* \"#utility.yul\":320:321   */\n      0x00\n        /* \"#utility.yul\":317:318   */\n      dup1\n        /* \"#utility.yul\":310:322   */\n      revert\n        /* \"#utility.yul\":334:411   */\n    tag_65:\n        /* \"#utility.yul\":371:378   */\n      0x00\n        /* \"#utility.yul\":400:405   */\n      dup2\n        /* \"#utility.yul\":389:405   */\n      swap1\n      pop\n        /* \"#utility.yul\":334:411   */\n      swap2\n      swap1\n      pop\n      jump\t// out\n        /* \"#utility.yul\":417:539   */\n    tag_66:\n        /* \"#utility.yul\":490:514   */\n      tag_125\n        /* \"#utility.yul\":508:513   */\n      dup2\n        /* \"#utility.yul\":490:514   */\n      tag_65\n      jump\t// in\n    tag_125:\n        /* \"#utility.yul\":483:488   */\n      dup2\n        /* \"#utility.yul\":480:515   */\n      eq\n        /* \"#utility.yul\":470:533   */\n      tag_126\n      jumpi\n        /* \"#utility.yul\":529:530   */\n      0x00\n        /* \"#utility.yul\":526:527   */\n      dup1\n        /* \"#utility.yul\":519:531   */\n      revert\n        /* \"#utility.yul\":470:533   */\n    tag_126:\n        /* \"#utility.yul\":417:539   */\n      pop\n      jump\t// out\n        /* \"#utility.yul\":545:684   */\n    tag_67:\n        /* \"#utility.yul\":591:596   */\n      0x00\n        /* \"#utility.yul\":629:635   */\n      dup2\n        /* \"#utility.yul\":616:636   */\n      calldataload\n        /* \"#utility.yul\":607:636   */\n      swap1\n      pop\n        /* \"#utility.yul\":645:678   */\n      tag_128\n        /* \"#utility.yul\":672:677   */\n      dup2\n        /* \"#utility.yul\":645:678   */\n      tag_66\n      jump\t// in\n    tag_128:\n        /* \"#utility.yul\":545:684   */\n      swap3\n      swap2\n      pop\n      pop\n      jump\t// out\n        /* \"#utility.yul\":690:1019   */\n    tag_8:\n        /* \"#utility.yul\":749:755   */\n      0x00\n        /* \"#utility.yul\":798:800   */\n      0x20\n        /* \"#utility.yul\":786:795   */\n      dup3\n        /* \"#utility.yul\":777:784   */\n      dup5\n        /* \"#utility.yul\":773:796   */\n      sub\n        /* \"#utility.yul\":769:801   */\n      slt\n        /* \"#utility.yul\":766:885   */\n      iszero\n      tag_130\n      jumpi\n        /* \"#utility.yul\":804:883   */\n      tag_131\n      tag_63\n      jump\t// in\n    tag_131:\n        /* \"#utility.yul\":766:885   */\n    tag_130:\n        /* \"#utility.yul\":924:925   */\n      0x00\n        /* \"#utility.yul\":949:1002   */\n      tag_132\n        /* \"#utility.yul\":994:1001   */\n      dup5\n        /* \"#utility.yul\":985:991   */\n      dup3\n        /* \"#utility.yul\":974:983   */\n      dup6\n        /* \"#utility.yul\":970:992   */\n      add\n        /* \"#utility.yul\":949:1002   */\n      tag_67\n      jump\t// in\n    tag_132:\n        /* \"#utility.yul\":939:1002   */\n      swap2\n      pop\n        /* \"#utility.yul\":895:1012   */\n      pop\n        /* \"#utility.yul\":690:1019   */\n      swap3\n      swap2\n      pop\n      pop\n      jump\t// out\n        /* \"#utility.yul\":1025:1151   */\n    tag_68:\n        /* \"#utility.yul\":1062:1069   */\n      0x00\n        /* \"#utility.yul\":1102:1144   */\n      0xffffffffffffffffffffffffffffffffffffffff\n        /* \"#utility.yul\":1095:1100   */\n      dup3\n        /* \"#utility.yul\":1091:1145   */\n      and\n        /* \"#utility.yul\":1080:1145   */\n      swap1\n      pop\n        /* \"#utility.yul\":1025:1151   */\n      swap2\n      swap1\n      pop\n      jump\t// out\n        /* \"#utility.yul\":1157:1253   */\n    tag_69:\n        /* \"#utility.yul\":1194:1201   */\n      0x00\n        /* \"#utility.yul\":1223:1247   */\n      tag_135\n        /* \"#utility.yul\":1241:1246   */\n      dup3\n        /* \"#utility.yul\":1223:1247   */\n      tag_68\n      jump\t// in\n    tag_135:\n        /* \"#utility.yul\":1212:1247   */\n      swap1\n      pop\n        /* \"#utility.yul\":1157:1253   */\n      swap2\n      swap1\n      pop\n      jump\t// out\n        /* \"#utility.yul\":1259:1381   */\n    tag_70:\n        /* \"#utility.yul\":1332:1356   */\n      tag_137\n        /* \"#utility.yul\":1350:1355   */\n      dup2\n        /* \"#utility.yul\":1332:1356   */\n      tag_69\n      jump\t// in\n    tag_137:\n        /* \"#utility.yul\":1325:1330   */\n      dup2\n        /* \"#utility.yul\":1322:1357   */\n      eq\n        /* \"#utility.yul\":1312:1375   */\n      tag_138\n      jumpi\n        /* \"#utility.yul\":1371:1372   */\n      0x00\n        /* \"#utility.yul\":1368:1369   */\n      dup1\n        /* \"#utility.yul\":1361:1373   */\n      revert\n        /* \"#utility.yul\":1312:1375   */\n    tag_138:\n        /* \"#utility.yul\":1259:1381   */\n      pop\n      jump\t// out\n        /* \"#utility.yul\":1387:1526   */\n    tag_71:\n        /* \"#utility.yul\":1433:1438   */\n      0x00\n        /* \"#utility.yul\":1471:1477   */\n      dup2\n        /* \"#utility.yul\":1458:1478   */\n      calldataload\n        /* \"#utility.yul\":1449:1478   */\n      swap1\n      pop\n        /* \"#utility.yul\":1487:1520   */\n      tag_140\n        /* \"#utility.yul\":1514:1519   */\n      dup2\n        /* \"#utility.yul\":1487:1520   */\n      tag_70\n      jump\t// in\n    tag_140:\n        /* \"#utility.yul\":1387:1526   */\n      swap3\n      swap2\n      pop\n      pop\n      jump\t// out\n        /* \"#utility.yul\":1532:1649   */\n    tag_72:\n        /* \"#utility.yul\":1641:1642   */\n      0x00\n        /* \"#utility.yul\":1638:1639   */\n      dup1\n        /* \"#utility.yul\":1631:1643   */\n      revert\n        /* \"#utility.yul\":1655:1772   */\n    tag_73:\n        /* \"#utility.yul\":1764:1765   */\n      0x00\n        /* \"#utility.yul\":1761:1762   */\n      dup1\n        /* \"#utility.yul\":1754:1766   */\n      revert\n        /* \"#utility.yul\":1778:1880   */\n    tag_74:\n        /* \"#utility.yul\":1819:1825   */\n      0x00\n        /* \"#utility.yul\":1870:1872   */\n      0x1f\n        /* \"#utility.yul\":1866:1873   */\n      not\n        /* \"#utility.yul\":1861:1863   */\n      0x1f\n        /* \"#utility.yul\":1854:1859   */\n      dup4\n        /* \"#utility.yul\":1850:1864   */\n      add\n        /* \"#utility.yul\":1846:1874   */\n      and\n        /* \"#utility.yul\":1836:1874   */\n      swap1\n      pop\n        /* \"#utility.yul\":1778:1880   */\n      swap2\n      swap1\n      pop\n      jump\t// out\n        /* \"#utility.yul\":1886:2066   */\n    tag_75:\n        /* \"#utility.yul\":1934:2011   */\n      0x4e487b7100000000000000000000000000000000000000000000000000000000\n        /* \"#utility.yul\":1931:1932   */\n      0x00\n        /* \"#utility.yul\":1924:2012   */\n      mstore\n        /* \"#utility.yul\":2031:2035   */\n      0x41\n        /* \"#utility.yul\":2028:2029   */\n      0x04\n        /* \"#utility.yul\":2021:2036   */\n      mstore\n        /* \"#utility.yul\":2055:2059   */\n      0x24\n        /* \"#utility.yul\":2052:2053   */\n      0x00\n        /* \"#utility.yul\":2045:2060   */\n      revert\n        /* \"#utility.yul\":2072:2353   */\n    tag_76:\n        /* \"#utility.yul\":2155:2182   */\n      tag_146\n        /* \"#utility.yul\":2177:2181   */\n      dup3\n        /* \"#utility.yul\":2155:2182   */\n      tag_74\n      jump\t// in\n    tag_146:\n        /* \"#utility.yul\":2147:2153   */\n      dup2\n        /* \"#utility.yul\":2143:2183   */\n      add\n        /* \"#utility.yul\":2285:2291   */\n      dup2\n        /* \"#utility.yul\":2273:2283   */\n      dup2\n        /* \"#utility.yul\":2270:2292   */\n      lt\n        /* \"#utility.yul\":2249:2267   */\n      0xffffffffffffffff\n        /* \"#utility.yul\":2237:2247   */\n      dup3\n        /* \"#utility.yul\":2234:2268   */\n      gt\n        /* \"#utility.yul\":2231:2293   */\n      or\n        /* \"#utility.yul\":2228:2316   */\n      iszero\n      tag_147\n      jumpi\n        /* \"#utility.yul\":2296:2314   */\n      tag_148\n      tag_75\n      jump\t// in\n    tag_148:\n        /* \"#utility.yul\":2228:2316   */\n    tag_147:\n        /* \"#utility.yul\":2336:2346   */\n      dup1\n        /* \"#utility.yul\":2332:2334   */\n      0x40\n        /* \"#utility.yul\":2325:2347   */\n      mstore\n        /* \"#utility.yul\":2115:2353   */\n      pop\n        /* \"#utility.yul\":2072:2353   */\n      pop\n      pop\n      jump\t// out\n        /* \"#utility.yul\":2359:2488   */\n    tag_77:\n        /* \"#utility.yul\":2393:2399   */\n      0x00\n        /* \"#utility.yul\":2420:2440   */\n      tag_150\n      tag_62\n      jump\t// in\n    tag_150:\n        /* \"#utility.yul\":2410:2440   */\n      swap1\n      pop\n        /* \"#utility.yul\":2449:2482   */\n      tag_151\n        /* \"#utility.yul\":2477:2481   */\n      dup3\n        /* \"#utility.yul\":2469:2475   */\n      dup3\n        /* \"#utility.yul\":2449:2482   */\n      tag_76\n      jump\t// in\n    tag_151:\n        /* \"#utility.yul\":2359:2488   */\n      swap2\n      swap1\n      pop\n      jump\t// out\n        /* \"#utility.yul\":2494:2802   */\n    tag_78:\n        /* \"#utility.yul\":2556:2560   */\n      0x00\n        /* \"#utility.yul\":2646:2664   */\n      0xffffffffffffffff\n        /* \"#utility.yul\":2638:2644   */\n      dup3\n        /* \"#utility.yul\":2635:2665   */\n      gt\n        /* \"#utility.yul\":2632:2688   */\n      iszero\n      tag_153\n      jumpi\n        /* \"#utility.yul\":2668:2686   */\n      tag_154\n      tag_75\n      jump\t// in\n    tag_154:\n        /* \"#utility.yul\":2632:2688   */\n    tag_153:\n        /* \"#utility.yul\":2706:2735   */\n      tag_155\n        /* \"#utility.yul\":2728:2734   */\n      dup3\n        /* \"#utility.yul\":2706:2735   */\n      tag_74\n      jump\t// in\n    tag_155:\n        /* \"#utility.yul\":2698:2735   */\n      swap1\n      pop\n        /* \"#utility.yul\":2790:2794   */\n      0x20\n        /* \"#utility.yul\":2784:2788   */\n      dup2\n        /* \"#utility.yul\":2780:2795   */\n      add\n        /* \"#utility.yul\":2772:2795   */\n      swap1\n      pop\n        /* \"#utility.yul\":2494:2802   */\n      swap2\n      swap1\n      pop\n      jump\t// out\n        /* \"#utility.yul\":2808:2954   */\n    tag_79:\n        /* \"#utility.yul\":2905:2911   */\n      dup3\n        /* \"#utility.yul\":2900:2903   */\n      dup2\n        /* \"#utility.yul\":2895:2898   */\n      dup4\n        /* \"#utility.yul\":2882:2912   */\n      calldatacopy\n        /* \"#utility.yul\":2946:2947   */\n      0x00\n        /* \"#utility.yul\":2937:2943   */\n      dup4\n        /* \"#utility.yul\":2932:2935   */\n      dup4\n        /* \"#utility.yul\":2928:2944   */\n      add\n        /* \"#utility.yul\":2921:2948   */\n      mstore\n        /* \"#utility.yul\":2808:2954   */\n      pop\n      pop\n      pop\n      jump\t// out\n        /* \"#utility.yul\":2960:3385   */\n    tag_80:\n        /* \"#utility.yul\":3038:3043   */\n      0x00\n        /* \"#utility.yul\":3063:3129   */\n      tag_158\n        /* \"#utility.yul\":3079:3128   */\n      tag_159\n        /* \"#utility.yul\":3121:3127   */\n      dup5\n        /* \"#utility.yul\":3079:3128   */\n      tag_78\n      jump\t// in\n    tag_159:\n        /* \"#utility.yul\":3063:3129   */\n      tag_77\n      jump\t// in\n    tag_158:\n        /* \"#utility.yul\":3054:3129   */\n      swap1\n      pop\n        /* \"#utility.yul\":3152:3158   */\n      dup3\n        /* \"#utility.yul\":3145:3150   */\n      dup2\n        /* \"#utility.yul\":3138:3159   */\n      mstore\n        /* \"#utility.yul\":3190:3194   */\n      0x20\n        /* \"#utility.yul\":3183:3188   */\n      dup2\n        /* \"#utility.yul\":3179:3195   */\n      add\n        /* \"#utility.yul\":3228:3231   */\n      dup5\n        /* \"#utility.yul\":3219:3225   */\n      dup5\n        /* \"#utility.yul\":3214:3217   */\n      dup5\n        /* \"#utility.yul\":3210:3226   */\n      add\n        /* \"#utility.yul\":3207:3232   */\n      gt\n        /* \"#utility.yul\":3204:3316   */\n      iszero\n      tag_160\n      jumpi\n        /* \"#utility.yul\":3235:3314   */\n      tag_161\n      tag_73\n      jump\t// in\n    tag_161:\n        /* \"#utility.yul\":3204:3316   */\n    tag_160:\n        /* \"#utility.yul\":3325:3379   */\n      tag_162\n        /* \"#utility.yul\":3372:3378   */\n      dup5\n        /* \"#utility.yul\":3367:3370   */\n      dup3\n        /* \"#utility.yul\":3362:3365   */\n      dup6\n        /* \"#utility.yul\":3325:3379   */\n      tag_79\n      jump\t// in\n    tag_162:\n        /* \"#utility.yul\":3044:3385   */\n      pop\n        /* \"#utility.yul\":2960:3385   */\n      swap4\n      swap3\n      pop\n      pop\n      pop\n      jump\t// out\n        /* \"#utility.yul\":3405:3745   */\n    tag_81:\n        /* \"#utility.yul\":3461:3466   */\n      0x00\n        /* \"#utility.yul\":3510:3513   */\n      dup3\n        /* \"#utility.yul\":3503:3507   */\n      0x1f\n        /* \"#utility.yul\":3495:3501   */\n      dup4\n        /* \"#utility.yul\":3491:3508   */\n      add\n        /* \"#utility.yul\":3487:3514   */\n      slt\n        /* \"#utility.yul\":3477:3599   */\n      tag_164\n      jumpi\n        /* \"#utility.yul\":3518:3597   */\n      tag_165\n      tag_72\n      jump\t// in\n    tag_165:\n        /* \"#utility.yul\":3477:3599   */\n    tag_164:\n        /* \"#utility.yul\":3635:3641   */\n      dup2\n        /* \"#utility.yul\":3622:3642   */\n      calldataload\n        /* \"#utility.yul\":3660:3739   */\n      tag_166\n        /* \"#utility.yul\":3735:3738   */\n      dup5\n        /* \"#utility.yul\":3727:3733   */\n      dup3\n        /* \"#utility.yul\":3720:3724   */\n      0x20\n        /* \"#utility.yul\":3712:3718   */\n      dup7\n        /* \"#utility.yul\":3708:3725   */\n      add\n        /* \"#utility.yul\":3660:3739   */\n      tag_80\n      jump\t// in\n    tag_166:\n        /* \"#utility.yul\":3651:3739   */\n      swap2\n      pop\n        /* \"#utility.yul\":3467:3745   */\n      pop\n        /* \"#utility.yul\":3405:3745   */\n      swap3\n      swap2\n      pop\n      pop\n      jump\t// out\n        /* \"#utility.yul\":3751:4730   */\n    tag_12:\n        /* \"#utility.yul\":3848:3854   */\n      0x00\n        /* \"#utility.yul\":3856:3862   */\n      dup1\n        /* \"#utility.yul\":3864:3870   */\n      0x00\n        /* \"#utility.yul\":3913:3915   */\n      0x60\n        /* \"#utility.yul\":3901:3910   */\n      dup5\n        /* \"#utility.yul\":3892:3899   */\n      dup7\n        /* \"#utility.yul\":3888:3911   */\n      sub\n        /* \"#utility.yul\":3884:3916   */\n      slt\n        /* \"#utility.yul\":3881:4000   */\n      iszero\n      tag_168\n      jumpi\n        /* \"#utility.yul\":3919:3998   */\n      tag_169\n      tag_63\n      jump\t// in\n    tag_169:\n        /* \"#utility.yul\":3881:4000   */\n    tag_168:\n        /* \"#utility.yul\":4039:4040   */\n      0x00\n        /* \"#utility.yul\":4064:4117   */\n      tag_170\n        /* \"#utility.yul\":4109:4116   */\n      dup7\n        /* \"#utility.yul\":4100:4106   */\n      dup3\n        /* \"#utility.yul\":4089:4098   */\n      dup8\n        /* \"#utility.yul\":4085:4107   */\n      add\n        /* \"#utility.yul\":4064:4117   */\n      tag_71\n      jump\t// in\n    tag_170:\n        /* \"#utility.yul\":4054:4117   */\n      swap4\n      pop\n        /* \"#utility.yul\":4010:4127   */\n      pop\n        /* \"#utility.yul\":4194:4196   */\n      0x20\n        /* \"#utility.yul\":4183:4192   */\n      dup5\n        /* \"#utility.yul\":4179:4197   */\n      add\n        /* \"#utility.yul\":4166:4198   */\n      calldataload\n        /* \"#utility.yul\":4225:4243   */\n      0xffffffffffffffff\n        /* \"#utility.yul\":4217:4223   */\n      dup2\n        /* \"#utility.yul\":4214:4244   */\n      gt\n        /* \"#utility.yul\":4211:4328   */\n      iszero\n      tag_171\n      jumpi\n        /* \"#utility.yul\":4247:4326   */\n      tag_172\n      tag_64\n      jump\t// in\n    tag_172:\n        /* \"#utility.yul\":4211:4328   */\n    tag_171:\n        /* \"#utility.yul\":4352:4415   */\n      tag_173\n        /* \"#utility.yul\":4407:4414   */\n      dup7\n        /* \"#utility.yul\":4398:4404   */\n      dup3\n        /* \"#utility.yul\":4387:4396   */\n      dup8\n        /* \"#utility.yul\":4383:4405   */\n      add\n        /* \"#utility.yul\":4352:4415   */\n      tag_81\n      jump\t// in\n    tag_173:\n        /* \"#utility.yul\":4342:4415   */\n      swap3\n      pop\n        /* \"#utility.yul\":4137:4425   */\n      pop\n        /* \"#utility.yul\":4492:4494   */\n      0x40\n        /* \"#utility.yul\":4481:4490   */\n      dup5\n        /* \"#utility.yul\":4477:4495   */\n      add\n        /* \"#utility.yul\":4464:4496   */\n      calldataload\n        /* \"#utility.yul\":4523:4541   */\n      0xffffffffffffffff\n        /* \"#utility.yul\":4515:4521   */\n      dup2\n        /* \"#utility.yul\":4512:4542   */\n      gt\n        /* \"#utility.yul\":4509:4626   */\n      iszero\n      tag_174\n      jumpi\n        /* \"#utility.yul\":4545:4624   */\n      tag_175\n      tag_64\n      jump\t// in\n    tag_175:\n        /* \"#utility.yul\":4509:4626   */\n    tag_174:\n        /* \"#utility.yul\":4650:4713   */\n      tag_176\n        /* \"#utility.yul\":4705:4712   */\n      dup7\n        /* \"#utility.yul\":4696:4702   */\n      dup3\n        /* \"#utility.yul\":4685:4694   */\n      dup8\n        /* \"#utility.yul\":4681:4703   */\n      add\n        /* \"#utility.yul\":4650:4713   */\n      tag_81\n      jump\t// in\n    tag_176:\n        /* \"#utility.yul\":4640:4713   */\n      swap2\n      pop\n        /* \"#utility.yul\":4435:4723   */\n      pop\n        /* \"#utility.yul\":3751:4730   */\n      swap3\n      pop\n      swap3\n      pop\n      swap3\n      jump\t// out\n        /* \"#utility.yul\":4736:4879   */\n    tag_82:\n        /* \"#utility.yul\":4832:4838   */\n      0x00\n        /* \"#utility.yul\":4866:4871   */\n      dup2\n        /* \"#utility.yul\":4860:4872   */\n      mload\n        /* \"#utility.yul\":4850:4872   */\n      swap1\n      pop\n        /* \"#utility.yul\":4736:4879   */\n      swap2\n      swap1\n      pop\n      jump\t// out\n        /* \"#utility.yul\":4885:5098   */\n    tag_83:\n        /* \"#utility.yul\":5013:5024   */\n      0x00\n        /* \"#utility.yul\":5047:5053   */\n      dup3\n        /* \"#utility.yul\":5042:5045   */\n      dup3\n        /* \"#utility.yul\":5035:5054   */\n      mstore\n        /* \"#utility.yul\":5087:5091   */\n      0x20\n        /* \"#utility.yul\":5082:5085   */\n      dup3\n        /* \"#utility.yul\":5078:5092   */\n      add\n        /* \"#utility.yul\":5063:5092   */\n      swap1\n      pop\n        /* \"#utility.yul\":4885:5098   */\n      swap3\n      swap2\n      pop\n      pop\n      jump\t// out\n        /* \"#utility.yul\":5104:5265   */\n    tag_84:\n        /* \"#utility.yul\":5200:5204   */\n      0x00\n        /* \"#utility.yul\":5223:5226   */\n      dup2\n        /* \"#utility.yul\":5215:5226   */\n      swap1\n      pop\n        /* \"#utility.yul\":5253:5257   */\n      0x20\n        /* \"#utility.yul\":5248:5251   */\n      dup3\n        /* \"#utility.yul\":5244:5258   */\n      add\n        /* \"#utility.yul\":5236:5258   */\n      swap1\n      pop\n        /* \"#utility.yul\":5104:5265   */\n      swap2\n      swap1\n      pop\n      jump\t// out\n        /* \"#utility.yul\":5271:5379   */\n    tag_85:\n        /* \"#utility.yul\":5348:5372   */\n      tag_181\n        /* \"#utility.yul\":5366:5371   */\n      dup2\n        /* \"#utility.yul\":5348:5372   */\n      tag_69\n      jump\t// in\n    tag_181:\n        /* \"#utility.yul\":5343:5346   */\n      dup3\n        /* \"#utility.yul\":5336:5373   */\n      mstore\n        /* \"#utility.yul\":5271:5379   */\n      pop\n      pop\n      jump\t// out\n        /* \"#utility.yul\":5385:5484   */\n    tag_86:\n        /* \"#utility.yul\":5437:5443   */\n      0x00\n        /* \"#utility.yul\":5471:5476   */\n      dup2\n        /* \"#utility.yul\":5465:5477   */\n      mload\n        /* \"#utility.yul\":5455:5477   */\n      swap1\n      pop\n        /* \"#utility.yul\":5385:5484   */\n      swap2\n      swap1\n      pop\n      jump\t// out\n        /* \"#utility.yul\":5490:5649   */\n    tag_87:\n        /* \"#utility.yul\":5564:5575   */\n      0x00\n        /* \"#utility.yul\":5598:5604   */\n      dup3\n        /* \"#utility.yul\":5593:5596   */\n      dup3\n        /* \"#utility.yul\":5586:5605   */\n      mstore\n        /* \"#utility.yul\":5638:5642   */\n      0x20\n        /* \"#utility.yul\":5633:5636   */\n      dup3\n        /* \"#utility.yul\":5629:5643   */\n      add\n        /* \"#utility.yul\":5614:5643   */\n      swap1\n      pop\n        /* \"#utility.yul\":5490:5649   */\n      swap3\n      swap2\n      pop\n      pop\n      jump\t// out\n        /* \"#utility.yul\":5655:5901   */\n    tag_88:\n        /* \"#utility.yul\":5736:5737   */\n      0x00\n        /* \"#utility.yul\":5746:5859   */\n    tag_185:\n        /* \"#utility.yul\":5760:5766   */\n      dup4\n        /* \"#utility.yul\":5757:5758   */\n      dup2\n        /* \"#utility.yul\":5754:5767   */\n      lt\n        /* \"#utility.yul\":5746:5859   */\n      iszero\n      tag_187\n      jumpi\n        /* \"#utility.yul\":5845:5846   */\n      dup1\n        /* \"#utility.yul\":5840:5843   */\n      dup3\n        /* \"#utility.yul\":5836:5847   */\n      add\n        /* \"#utility.yul\":5830:5848   */\n      mload\n        /* \"#utility.yul\":5826:5827   */\n      dup2\n        /* \"#utility.yul\":5821:5824   */\n      dup5\n        /* \"#utility.yul\":5817:5828   */\n      add\n        /* \"#utility.yul\":5810:5849   */\n      mstore\n        /* \"#utility.yul\":5782:5784   */\n      0x20\n        /* \"#utility.yul\":5779:5780   */\n      dup2\n        /* \"#utility.yul\":5775:5785   */\n      add\n        /* \"#utility.yul\":5770:5785   */\n      swap1\n      pop\n        /* \"#utility.yul\":5746:5859   */\n      jump(tag_185)\n    tag_187:\n        /* \"#utility.yul\":5893:5894   */\n      0x00\n        /* \"#utility.yul\":5884:5890   */\n      dup5\n        /* \"#utility.yul\":5879:5882   */\n      dup5\n        /* \"#utility.yul\":5875:5891   */\n      add\n        /* \"#utility.yul\":5868:5895   */\n      mstore\n        /* \"#utility.yul\":5717:5901   */\n      pop\n        /* \"#utility.yul\":5655:5901   */\n      pop\n      pop\n      pop\n      jump\t// out\n        /* \"#utility.yul\":5907:6264   */\n    tag_89:\n        /* \"#utility.yul\":5985:5988   */\n      0x00\n        /* \"#utility.yul\":6013:6052   */\n      tag_189\n        /* \"#utility.yul\":6046:6051   */\n      dup3\n        /* \"#utility.yul\":6013:6052   */\n      tag_86\n      jump\t// in\n    tag_189:\n        /* \"#utility.yul\":6068:6129   */\n      tag_190\n        /* \"#utility.yul\":6122:6128   */\n      dup2\n        /* \"#utility.yul\":6117:6120   */\n      dup6\n        /* \"#utility.yul\":6068:6129   */\n      tag_87\n      jump\t// in\n    tag_190:\n        /* \"#utility.yul\":6061:6129   */\n      swap4\n      pop\n        /* \"#utility.yul\":6138:6203   */\n      tag_191\n        /* \"#utility.yul\":6196:6202   */\n      dup2\n        /* \"#utility.yul\":6191:6194   */\n      dup6\n        /* \"#utility.yul\":6184:6188   */\n      0x20\n        /* \"#utility.yul\":6177:6182   */\n      dup7\n        /* \"#utility.yul\":6173:6189   */\n      add\n        /* \"#utility.yul\":6138:6203   */\n      tag_88\n      jump\t// in\n    tag_191:\n        /* \"#utility.yul\":6228:6257   */\n      tag_192\n        /* \"#utility.yul\":6250:6256   */\n      dup2\n        /* \"#utility.yul\":6228:6257   */\n      tag_74\n      jump\t// in\n    tag_192:\n        /* \"#utility.yul\":6223:6226   */\n      dup5\n        /* \"#utility.yul\":6219:6258   */\n      add\n        /* \"#utility.yul\":6212:6258   */\n      swap2\n      pop\n        /* \"#utility.yul\":5989:6264   */\n      pop\n        /* \"#utility.yul\":5907:6264   */\n      swap3\n      swap2\n      pop\n      pop\n      jump\t// out\n        /* \"#utility.yul\":6270:6384   */\n    tag_90:\n        /* \"#utility.yul\":6337:6343   */\n      0x00\n        /* \"#utility.yul\":6371:6376   */\n      dup2\n        /* \"#utility.yul\":6365:6377   */\n      mload\n        /* \"#utility.yul\":6355:6377   */\n      swap1\n      pop\n        /* \"#utility.yul\":6270:6384   */\n      swap2\n      swap1\n      pop\n      jump\t// out\n        /* \"#utility.yul\":6390:6564   */\n    tag_91:\n        /* \"#utility.yul\":6479:6490   */\n      0x00\n        /* \"#utility.yul\":6513:6519   */\n      dup3\n        /* \"#utility.yul\":6508:6511   */\n      dup3\n        /* \"#utility.yul\":6501:6520   */\n      mstore\n        /* \"#utility.yul\":6553:6557   */\n      0x20\n        /* \"#utility.yul\":6548:6551   */\n      dup3\n        /* \"#utility.yul\":6544:6558   */\n      add\n        /* \"#utility.yul\":6529:6558   */\n      swap1\n      pop\n        /* \"#utility.yul\":6390:6564   */\n      swap3\n      swap2\n      pop\n      pop\n      jump\t// out\n        /* \"#utility.yul\":6570:6702   */\n    tag_92:\n        /* \"#utility.yul\":6637:6641   */\n      0x00\n        /* \"#utility.yul\":6660:6663   */\n      dup2\n        /* \"#utility.yul\":6652:6663   */\n      swap1\n      pop\n        /* \"#utility.yul\":6690:6694   */\n      0x20\n        /* \"#utility.yul\":6685:6688   */\n      dup3\n        /* \"#utility.yul\":6681:6695   */\n      add\n        /* \"#utility.yul\":6673:6695   */\n      swap1\n      pop\n        /* \"#utility.yul\":6570:6702   */\n      swap2\n      swap1\n      pop\n      jump\t// out\n        /* \"#utility.yul\":6708:6887   */\n    tag_93:\n        /* \"#utility.yul\":6777:6787   */\n      0x00\n        /* \"#utility.yul\":6798:6844   */\n      tag_197\n        /* \"#utility.yul\":6840:6843   */\n      dup4\n        /* \"#utility.yul\":6832:6838   */\n      dup4\n        /* \"#utility.yul\":6798:6844   */\n      tag_85\n      jump\t// in\n    tag_197:\n        /* \"#utility.yul\":6876:6880   */\n      0x20\n        /* \"#utility.yul\":6871:6874   */\n      dup4\n        /* \"#utility.yul\":6867:6881   */\n      add\n        /* \"#utility.yul\":6853:6881   */\n      swap1\n      pop\n        /* \"#utility.yul\":6708:6887   */\n      swap3\n      swap2\n      pop\n      pop\n      jump\t// out\n        /* \"#utility.yul\":6893:7006   */\n    tag_94:\n        /* \"#utility.yul\":6963:6967   */\n      0x00\n        /* \"#utility.yul\":6995:6999   */\n      0x20\n        /* \"#utility.yul\":6990:6993   */\n      dup3\n        /* \"#utility.yul\":6986:7000   */\n      add\n        /* \"#utility.yul\":6978:7000   */\n      swap1\n      pop\n        /* \"#utility.yul\":6893:7006   */\n      swap2\n      swap1\n      pop\n      jump\t// out\n        /* \"#utility.yul\":7042:7754   */\n    tag_95:\n        /* \"#utility.yul\":7151:7154   */\n      0x00\n        /* \"#utility.yul\":7180:7234   */\n      tag_200\n        /* \"#utility.yul\":7228:7233   */\n      dup3\n        /* \"#utility.yul\":7180:7234   */\n      tag_90\n      jump\t// in\n    tag_200:\n        /* \"#utility.yul\":7250:7326   */\n      tag_201\n        /* \"#utility.yul\":7319:7325   */\n      dup2\n        /* \"#utility.yul\":7314:7317   */\n      dup6\n        /* \"#utility.yul\":7250:7326   */\n      tag_91\n      jump\t// in\n    tag_201:\n        /* \"#utility.yul\":7243:7326   */\n      swap4\n      pop\n        /* \"#utility.yul\":7350:7406   */\n      tag_202\n        /* \"#utility.yul\":7400:7405   */\n      dup4\n        /* \"#utility.yul\":7350:7406   */\n      tag_92\n      jump\t// in\n    tag_202:\n        /* \"#utility.yul\":7429:7436   */\n      dup1\n        /* \"#utility.yul\":7460:7461   */\n      0x00\n        /* \"#utility.yul\":7445:7729   */\n    tag_203:\n        /* \"#utility.yul\":7470:7476   */\n      dup4\n        /* \"#utility.yul\":7467:7468   */\n      dup2\n        /* \"#utility.yul\":7464:7477   */\n      lt\n        /* \"#utility.yul\":7445:7729   */\n      iszero\n      tag_205\n      jumpi\n        /* \"#utility.yul\":7546:7552   */\n      dup2\n        /* \"#utility.yul\":7540:7553   */\n      mload\n        /* \"#utility.yul\":7573:7636   */\n      tag_206\n        /* \"#utility.yul\":7632:7635   */\n      dup9\n        /* \"#utility.yul\":7617:7630   */\n      dup3\n        /* \"#utility.yul\":7573:7636   */\n      tag_93\n      jump\t// in\n    tag_206:\n        /* \"#utility.yul\":7566:7636   */\n      swap8\n      pop\n        /* \"#utility.yul\":7659:7719   */\n      tag_207\n        /* \"#utility.yul\":7712:7718   */\n      dup4\n        /* \"#utility.yul\":7659:7719   */\n      tag_94\n      jump\t// in\n    tag_207:\n        /* \"#utility.yul\":7649:7719   */\n      swap3\n      pop\n        /* \"#utility.yul\":7505:7729   */\n      pop\n        /* \"#utility.yul\":7492:7493   */\n      0x01\n        /* \"#utility.yul\":7489:7490   */\n      dup2\n        /* \"#utility.yul\":7485:7494   */\n      add\n        /* \"#utility.yul\":7480:7494   */\n      swap1\n      pop\n        /* \"#utility.yul\":7445:7729   */\n      jump(tag_203)\n    tag_205:\n        /* \"#utility.yul\":7449:7463   */\n      pop\n        /* \"#utility.yul\":7745:7748   */\n      dup6\n        /* \"#utility.yul\":7738:7748   */\n      swap4\n      pop\n        /* \"#utility.yul\":7156:7754   */\n      pop\n      pop\n      pop\n        /* \"#utility.yul\":7042:7754   */\n      swap3\n      swap2\n      pop\n      pop\n      jump\t// out\n        /* \"#utility.yul\":7826:8983   */\n    tag_96:\n        /* \"#utility.yul\":7943:7946   */\n      0x00\n        /* \"#utility.yul\":7979:7983   */\n      0x80\n        /* \"#utility.yul\":7974:7977   */\n      dup4\n        /* \"#utility.yul\":7970:7984   */\n      add\n        /* \"#utility.yul\":8078:8082   */\n      0x00\n        /* \"#utility.yul\":8071:8076   */\n      dup4\n        /* \"#utility.yul\":8067:8083   */\n      add\n        /* \"#utility.yul\":8061:8084   */\n      mload\n        /* \"#utility.yul\":8097:8160   */\n      tag_209\n        /* \"#utility.yul\":8154:8158   */\n      0x00\n        /* \"#utility.yul\":8149:8152   */\n      dup7\n        /* \"#utility.yul\":8145:8159   */\n      add\n        /* \"#utility.yul\":8131:8143   */\n      dup3\n        /* \"#utility.yul\":8097:8160   */\n      tag_85\n      jump\t// in\n    tag_209:\n        /* \"#utility.yul\":7994:8170   */\n      pop\n        /* \"#utility.yul\":8261:8265   */\n      0x20\n        /* \"#utility.yul\":8254:8259   */\n      dup4\n        /* \"#utility.yul\":8250:8266   */\n      add\n        /* \"#utility.yul\":8244:8267   */\n      mload\n        /* \"#utility.yul\":8314:8317   */\n      dup5\n        /* \"#utility.yul\":8308:8312   */\n      dup3\n        /* \"#utility.yul\":8304:8318   */\n      sub\n        /* \"#utility.yul\":8297:8301   */\n      0x20\n        /* \"#utility.yul\":8292:8295   */\n      dup7\n        /* \"#utility.yul\":8288:8302   */\n      add\n        /* \"#utility.yul\":8281:8319   */\n      mstore\n        /* \"#utility.yul\":8340:8413   */\n      tag_210\n        /* \"#utility.yul\":8408:8412   */\n      dup3\n        /* \"#utility.yul\":8394:8406   */\n      dup3\n        /* \"#utility.yul\":8340:8413   */\n      tag_89\n      jump\t// in\n    tag_210:\n        /* \"#utility.yul\":8332:8413   */\n      swap2\n      pop\n        /* \"#utility.yul\":8180:8424   */\n      pop\n        /* \"#utility.yul\":8516:8520   */\n      0x40\n        /* \"#utility.yul\":8509:8514   */\n      dup4\n        /* \"#utility.yul\":8505:8521   */\n      add\n        /* \"#utility.yul\":8499:8522   */\n      mload\n        /* \"#utility.yul\":8569:8572   */\n      dup5\n        /* \"#utility.yul\":8563:8567   */\n      dup3\n        /* \"#utility.yul\":8559:8573   */\n      sub\n        /* \"#utility.yul\":8552:8556   */\n      0x40\n        /* \"#utility.yul\":8547:8550   */\n      dup7\n        /* \"#utility.yul\":8543:8557   */\n      add\n        /* \"#utility.yul\":8536:8574   */\n      mstore\n        /* \"#utility.yul\":8595:8668   */\n      tag_211\n        /* \"#utility.yul\":8663:8667   */\n      dup3\n        /* \"#utility.yul\":8649:8661   */\n      dup3\n        /* \"#utility.yul\":8595:8668   */\n      tag_89\n      jump\t// in\n    tag_211:\n        /* \"#utility.yul\":8587:8668   */\n      swap2\n      pop\n        /* \"#utility.yul\":8434:8679   */\n      pop\n        /* \"#utility.yul\":8763:8767   */\n      0x60\n        /* \"#utility.yul\":8756:8761   */\n      dup4\n        /* \"#utility.yul\":8752:8768   */\n      add\n        /* \"#utility.yul\":8746:8769   */\n      mload\n        /* \"#utility.yul\":8816:8819   */\n      dup5\n        /* \"#utility.yul\":8810:8814   */\n      dup3\n        /* \"#utility.yul\":8806:8820   */\n      sub\n        /* \"#utility.yul\":8799:8803   */\n      0x60\n        /* \"#utility.yul\":8794:8797   */\n      dup7\n        /* \"#utility.yul\":8790:8804   */\n      add\n        /* \"#utility.yul\":8783:8821   */\n      mstore\n        /* \"#utility.yul\":8842:8945   */\n      tag_212\n        /* \"#utility.yul\":8940:8944   */\n      dup3\n        /* \"#utility.yul\":8926:8938   */\n      dup3\n        /* \"#utility.yul\":8842:8945   */\n      tag_95\n      jump\t// in\n    tag_212:\n        /* \"#utility.yul\":8834:8945   */\n      swap2\n      pop\n        /* \"#utility.yul\":8689:8956   */\n      pop\n        /* \"#utility.yul\":8973:8977   */\n      dup1\n        /* \"#utility.yul\":8966:8977   */\n      swap2\n      pop\n        /* \"#utility.yul\":7948:8983   */\n      pop\n        /* \"#utility.yul\":7826:8983   */\n      swap3\n      swap2\n      pop\n      pop\n      jump\t// out\n        /* \"#utility.yul\":8989:9261   */\n    tag_97:\n        /* \"#utility.yul\":9116:9126   */\n      0x00\n        /* \"#utility.yul\":9151:9255   */\n      tag_214\n        /* \"#utility.yul\":9251:9254   */\n      dup4\n        /* \"#utility.yul\":9243:9249   */\n      dup4\n        /* \"#utility.yul\":9151:9255   */\n      tag_96\n      jump\t// in\n    tag_214:\n        /* \"#utility.yul\":9137:9255   */\n      swap1\n      pop\n        /* \"#utility.yul\":8989:9261   */\n      swap3\n      swap2\n      pop\n      pop\n      jump\t// out\n        /* \"#utility.yul\":9267:9409   */\n    tag_98:\n        /* \"#utility.yul\":9366:9370   */\n      0x00\n        /* \"#utility.yul\":9398:9402   */\n      0x20\n        /* \"#utility.yul\":9393:9396   */\n      dup3\n        /* \"#utility.yul\":9389:9403   */\n      add\n        /* \"#utility.yul\":9381:9403   */\n      swap1\n      pop\n        /* \"#utility.yul\":9267:9409   */\n      swap2\n      swap1\n      pop\n      jump\t// out\n        /* \"#utility.yul\":9485:10628   */\n    tag_99:\n        /* \"#utility.yul\":9662:9665   */\n      0x00\n        /* \"#utility.yul\":9691:9774   */\n      tag_217\n        /* \"#utility.yul\":9768:9773   */\n      dup3\n        /* \"#utility.yul\":9691:9774   */\n      tag_82\n      jump\t// in\n    tag_217:\n        /* \"#utility.yul\":9790:9905   */\n      tag_218\n        /* \"#utility.yul\":9898:9904   */\n      dup2\n        /* \"#utility.yul\":9893:9896   */\n      dup6\n        /* \"#utility.yul\":9790:9905   */\n      tag_83\n      jump\t// in\n    tag_218:\n        /* \"#utility.yul\":9783:9905   */\n      swap4\n      pop\n        /* \"#utility.yul\":9931:9934   */\n      dup4\n        /* \"#utility.yul\":9976:9980   */\n      0x20\n        /* \"#utility.yul\":9968:9974   */\n      dup3\n        /* \"#utility.yul\":9964:9981   */\n      mul\n        /* \"#utility.yul\":9959:9962   */\n      dup6\n        /* \"#utility.yul\":9955:9982   */\n      add\n        /* \"#utility.yul\":10006:10091   */\n      tag_219\n        /* \"#utility.yul\":10085:10090   */\n      dup6\n        /* \"#utility.yul\":10006:10091   */\n      tag_84\n      jump\t// in\n    tag_219:\n        /* \"#utility.yul\":10114:10121   */\n      dup1\n        /* \"#utility.yul\":10145:10146   */\n      0x00\n        /* \"#utility.yul\":10130:10583   */\n    tag_220:\n        /* \"#utility.yul\":10155:10161   */\n      dup6\n        /* \"#utility.yul\":10152:10153   */\n      dup2\n        /* \"#utility.yul\":10149:10162   */\n      lt\n        /* \"#utility.yul\":10130:10583   */\n      iszero\n      tag_222\n      jumpi\n        /* \"#utility.yul\":10226:10235   */\n      dup5\n        /* \"#utility.yul\":10220:10224   */\n      dup5\n        /* \"#utility.yul\":10216:10236   */\n      sub\n        /* \"#utility.yul\":10211:10214   */\n      dup10\n        /* \"#utility.yul\":10204:10237   */\n      mstore\n        /* \"#utility.yul\":10277:10283   */\n      dup2\n        /* \"#utility.yul\":10271:10284   */\n      mload\n        /* \"#utility.yul\":10305:10427   */\n      tag_223\n        /* \"#utility.yul\":10422:10426   */\n      dup6\n        /* \"#utility.yul\":10407:10420   */\n      dup3\n        /* \"#utility.yul\":10305:10427   */\n      tag_97\n      jump\t// in\n    tag_223:\n        /* \"#utility.yul\":10297:10427   */\n      swap5\n      pop\n        /* \"#utility.yul\":10450:10539   */\n      tag_224\n        /* \"#utility.yul\":10532:10538   */\n      dup4\n        /* \"#utility.yul\":10450:10539   */\n      tag_98\n      jump\t// in\n    tag_224:\n        /* \"#utility.yul\":10440:10539   */\n      swap3\n      pop\n        /* \"#utility.yul\":10568:10572   */\n      0x20\n        /* \"#utility.yul\":10563:10566   */\n      dup11\n        /* \"#utility.yul\":10559:10573   */\n      add\n        /* \"#utility.yul\":10552:10573   */\n      swap10\n      pop\n        /* \"#utility.yul\":10190:10583   */\n      pop\n        /* \"#utility.yul\":10177:10178   */\n      0x01\n        /* \"#utility.yul\":10174:10175   */\n      dup2\n        /* \"#utility.yul\":10170:10179   */\n      add\n        /* \"#utility.yul\":10165:10179   */\n      swap1\n      pop\n        /* \"#utility.yul\":10130:10583   */\n      jump(tag_220)\n    tag_222:\n        /* \"#utility.yul\":10134:10148   */\n      pop\n        /* \"#utility.yul\":10599:10603   */\n      dup3\n        /* \"#utility.yul\":10592:10603   */\n      swap8\n      pop\n        /* \"#utility.yul\":10619:10622   */\n      dup8\n        /* \"#utility.yul\":10612:10622   */\n      swap6\n      pop\n        /* \"#utility.yul\":9667:10628   */\n      pop\n      pop\n      pop\n      pop\n      pop\n        /* \"#utility.yul\":9485:10628   */\n      swap3\n      swap2\n      pop\n      pop\n      jump\t// out\n        /* \"#utility.yul\":10634:11123   */\n    tag_17:\n        /* \"#utility.yul\":10835:10839   */\n      0x00\n        /* \"#utility.yul\":10873:10875   */\n      0x20\n        /* \"#utility.yul\":10862:10871   */\n      dup3\n        /* \"#utility.yul\":10858:10876   */\n      add\n        /* \"#utility.yul\":10850:10876   */\n      swap1\n      pop\n        /* \"#utility.yul\":10922:10931   */\n      dup2\n        /* \"#utility.yul\":10916:10920   */\n      dup2\n        /* \"#utility.yul\":10912:10932   */\n      sub\n        /* \"#utility.yul\":10908:10909   */\n      0x00\n        /* \"#utility.yul\":10897:10906   */\n      dup4\n        /* \"#utility.yul\":10893:10910   */\n      add\n        /* \"#utility.yul\":10886:10933   */\n      mstore\n        /* \"#utility.yul\":10950:11116   */\n      tag_226\n        /* \"#utility.yul\":11111:11115   */\n      dup2\n        /* \"#utility.yul\":11102:11108   */\n      dup5\n        /* \"#utility.yul\":10950:11116   */\n      tag_99\n      jump\t// in\n    tag_226:\n        /* \"#utility.yul\":10942:11116   */\n      swap1\n      pop\n        /* \"#utility.yul\":10634:11123   */\n      swap3\n      swap2\n      pop\n      pop\n      jump\t// out\n        /* \"#utility.yul\":11129:11309   */\n    tag_21:\n        /* \"#utility.yul\":11177:11254   */\n      0x4e487b7100000000000000000000000000000000000000000000000000000000\n        /* \"#utility.yul\":11174:11175   */\n      0x00\n        /* \"#utility.yul\":11167:11255   */\n      mstore\n        /* \"#utility.yul\":11274:11278   */\n      0x32\n        /* \"#utility.yul\":11271:11272   */\n      0x04\n        /* \"#utility.yul\":11264:11279   */\n      mstore\n        /* \"#utility.yul\":11298:11302   */\n      0x24\n        /* \"#utility.yul\":11295:11296   */\n      0x00\n        /* \"#utility.yul\":11288:11303   */\n      revert\n        /* \"#utility.yul\":11315:11484   */\n    tag_100:\n        /* \"#utility.yul\":11399:11410   */\n      0x00\n        /* \"#utility.yul\":11433:11439   */\n      dup3\n        /* \"#utility.yul\":11428:11431   */\n      dup3\n        /* \"#utility.yul\":11421:11440   */\n      mstore\n        /* \"#utility.yul\":11473:11477   */\n      0x20\n        /* \"#utility.yul\":11468:11471   */\n      dup3\n        /* \"#utility.yul\":11464:11478   */\n      add\n        /* \"#utility.yul\":11449:11478   */\n      swap1\n      pop\n        /* \"#utility.yul\":11315:11484   */\n      swap3\n      swap2\n      pop\n      pop\n      jump\t// out\n        /* \"#utility.yul\":11490:11656   */\n    tag_101:\n        /* \"#utility.yul\":11630:11648   */\n      0x63616e2774207369676e20747769636500000000000000000000000000000000\n        /* \"#utility.yul\":11626:11627   */\n      0x00\n        /* \"#utility.yul\":11618:11624   */\n      dup3\n        /* \"#utility.yul\":11614:11628   */\n      add\n        /* \"#utility.yul\":11607:11649   */\n      mstore\n        /* \"#utility.yul\":11490:11656   */\n      pop\n      jump\t// out\n        /* \"#utility.yul\":11662:12028   */\n    tag_102:\n        /* \"#utility.yul\":11804:11807   */\n      0x00\n        /* \"#utility.yul\":11825:11892   */\n      tag_231\n        /* \"#utility.yul\":11889:11891   */\n      0x10\n        /* \"#utility.yul\":11884:11887   */\n      dup4\n        /* \"#utility.yul\":11825:11892   */\n      tag_100\n      jump\t// in\n    tag_231:\n        /* \"#utility.yul\":11818:11892   */\n      swap2\n      pop\n        /* \"#utility.yul\":11901:11994   */\n      tag_232\n        /* \"#utility.yul\":11990:11993   */\n      dup3\n        /* \"#utility.yul\":11901:11994   */\n      tag_101\n      jump\t// in\n    tag_232:\n        /* \"#utility.yul\":12019:12021   */\n      0x20\n        /* \"#utility.yul\":12014:12017   */\n      dup3\n        /* \"#utility.yul\":12010:12022   */\n      add\n        /* \"#utility.yul\":12003:12022   */\n      swap1\n      pop\n        /* \"#utility.yul\":11662:12028   */\n      swap2\n      swap1\n      pop\n      jump\t// out\n        /* \"#utility.yul\":12034:12453   */\n    tag_25:\n        /* \"#utility.yul\":12200:12204   */\n      0x00\n        /* \"#utility.yul\":12238:12240   */\n      0x20\n        /* \"#utility.yul\":12227:12236   */\n      dup3\n        /* \"#utility.yul\":12223:12241   */\n      add\n        /* \"#utility.yul\":12215:12241   */\n      swap1\n      pop\n        /* \"#utility.yul\":12287:12296   */\n      dup2\n        /* \"#utility.yul\":12281:12285   */\n      dup2\n        /* \"#utility.yul\":12277:12297   */\n      sub\n        /* \"#utility.yul\":12273:12274   */\n      0x00\n        /* \"#utility.yul\":12262:12271   */\n      dup4\n        /* \"#utility.yul\":12258:12275   */\n      add\n        /* \"#utility.yul\":12251:12298   */\n      mstore\n        /* \"#utility.yul\":12315:12446   */\n      tag_234\n        /* \"#utility.yul\":12441:12445   */\n      dup2\n        /* \"#utility.yul\":12315:12446   */\n      tag_102\n      jump\t// in\n    tag_234:\n        /* \"#utility.yul\":12307:12446   */\n      swap1\n      pop\n        /* \"#utility.yul\":12034:12453   */\n      swap2\n      swap1\n      pop\n      jump\t// out\n        /* \"#utility.yul\":12459:12639   */\n    tag_103:\n        /* \"#utility.yul\":12507:12584   */\n      0x4e487b7100000000000000000000000000000000000000000000000000000000\n        /* \"#utility.yul\":12504:12505   */\n      0x00\n        /* \"#utility.yul\":12497:12585   */\n      mstore\n        /* \"#utility.yul\":12604:12608   */\n      0x22\n        /* \"#utility.yul\":12601:12602   */\n      0x04\n        /* \"#utility.yul\":12594:12609   */\n      mstore\n        /* \"#utility.yul\":12628:12632   */\n      0x24\n        /* \"#utility.yul\":12625:12626   */\n      0x00\n        /* \"#utility.yul\":12618:12633   */\n      revert\n        /* \"#utility.yul\":12645:12965   */\n    tag_43:\n        /* \"#utility.yul\":12689:12695   */\n      0x00\n        /* \"#utility.yul\":12726:12727   */\n      0x02\n        /* \"#utility.yul\":12720:12724   */\n      dup3\n        /* \"#utility.yul\":12716:12728   */\n      div\n        /* \"#utility.yul\":12706:12728   */\n      swap1\n      pop\n        /* \"#utility.yul\":12773:12774   */\n      0x01\n        /* \"#utility.yul\":12767:12771   */\n      dup3\n        /* \"#utility.yul\":12763:12775   */\n      and\n        /* \"#utility.yul\":12794:12812   */\n      dup1\n        /* \"#utility.yul\":12784:12865   */\n      tag_237\n      jumpi\n        /* \"#utility.yul\":12850:12854   */\n      0x7f\n        /* \"#utility.yul\":12842:12848   */\n      dup3\n        /* \"#utility.yul\":12838:12855   */\n      and\n        /* \"#utility.yul\":12828:12855   */\n      swap2\n      pop\n        /* \"#utility.yul\":12784:12865   */\n    tag_237:\n        /* \"#utility.yul\":12912:12914   */\n      0x20\n        /* \"#utility.yul\":12904:12910   */\n      dup3\n        /* \"#utility.yul\":12901:12915   */\n      lt\n        /* \"#utility.yul\":12881:12899   */\n      dup2\n        /* \"#utility.yul\":12878:12916   */\n      sub\n        /* \"#utility.yul\":12875:12959   */\n      tag_238\n      jumpi\n        /* \"#utility.yul\":12931:12949   */\n      tag_239\n      tag_103\n      jump\t// in\n    tag_239:\n        /* \"#utility.yul\":12875:12959   */\n    tag_238:\n        /* \"#utility.yul\":12696:12965   */\n      pop\n        /* \"#utility.yul\":12645:12965   */\n      swap2\n      swap1\n      pop\n      jump\t// out\n        /* \"#utility.yul\":12971:13112   */\n    tag_104:\n        /* \"#utility.yul\":13020:13024   */\n      0x00\n        /* \"#utility.yul\":13043:13046   */\n      dup2\n        /* \"#utility.yul\":13035:13046   */\n      swap1\n      pop\n        /* \"#utility.yul\":13066:13069   */\n      dup2\n        /* \"#utility.yul\":13063:13064   */\n      0x00\n        /* \"#utility.yul\":13056:13070   */\n      mstore\n        /* \"#utility.yul\":13100:13104   */\n      0x20\n        /* \"#utility.yul\":13097:13098   */\n      0x00\n        /* \"#utility.yul\":13087:13105   */\n      keccak256\n        /* \"#utility.yul\":13079:13105   */\n      swap1\n      pop\n        /* \"#utility.yul\":12971:13112   */\n      swap2\n      swap1\n      pop\n      jump\t// out\n        /* \"#utility.yul\":13118:13211   */\n    tag_105:\n        /* \"#utility.yul\":13155:13161   */\n      0x00\n        /* \"#utility.yul\":13202:13204   */\n      0x20\n        /* \"#utility.yul\":13197:13199   */\n      0x1f\n        /* \"#utility.yul\":13190:13195   */\n      dup4\n        /* \"#utility.yul\":13186:13200   */\n      add\n        /* \"#utility.yul\":13182:13205   */\n      div\n        /* \"#utility.yul\":13172:13205   */\n      swap1\n      pop\n        /* \"#utility.yul\":13118:13211   */\n      swap2\n      swap1\n      pop\n      jump\t// out\n        /* \"#utility.yul\":13217:13324   */\n    tag_106:\n        /* \"#utility.yul\":13261:13269   */\n      0x00\n        /* \"#utility.yul\":13311:13316   */\n      dup3\n        /* \"#utility.yul\":13305:13309   */\n      dup3\n        /* \"#utility.yul\":13301:13317   */\n      shl\n        /* \"#utility.yul\":13280:13317   */\n      swap1\n      pop\n        /* \"#utility.yul\":13217:13324   */\n      swap3\n      swap2\n      pop\n      pop\n      jump\t// out\n        /* \"#utility.yul\":13330:13723   */\n    tag_107:\n        /* \"#utility.yul\":13399:13405   */\n      0x00\n        /* \"#utility.yul\":13449:13450   */\n      0x08\n        /* \"#utility.yul\":13437:13447   */\n      dup4\n        /* \"#utility.yul\":13433:13451   */\n      mul\n        /* \"#utility.yul\":13472:13569   */\n      tag_244\n        /* \"#utility.yul\":13502:13568   */\n      0xffffffffffffffffffffffffffffffffffffffffffffffffffffffffffffffff\n        /* \"#utility.yul\":13491:13500   */\n      dup3\n        /* \"#utility.yul\":13472:13569   */\n      tag_106\n      jump\t// in\n    tag_244:\n        /* \"#utility.yul\":13590:13629   */\n      tag_245\n        /* \"#utility.yul\":13620:13628   */\n      dup7\n        /* \"#utility.yul\":13609:13618   */\n      dup4\n        /* \"#utility.yul\":13590:13629   */\n      tag_106\n      jump\t// in\n    tag_245:\n        /* \"#utility.yul\":13578:13629   */\n      swap6\n      pop\n        /* \"#utility.yul\":13662:13666   */\n      dup1\n        /* \"#utility.yul\":13658:13667   */\n      not\n        /* \"#utility.yul\":13651:13656   */\n      dup5\n        /* \"#utility.yul\":13647:13668   */\n      and\n        /* \"#utility.yul\":13638:13668   */\n      swap4\n      pop\n        /* \"#utility.yul\":13711:13715   */\n      dup1\n        /* \"#utility.yul\":13701:13709   */\n      dup7\n        /* \"#utility.yul\":13697:13716   */\n      and\n        /* \"#utility.yul\":13690:13695   */\n      dup5\n        /* \"#utility.yul\":13687:13717   */\n      or\n        /* \"#utility.yul\":13677:13717   */\n      swap3\n      pop\n        /* \"#utility.yul\":13406:13723   */\n      pop\n      pop\n        /* \"#utility.yul\":13330:13723   */\n      swap4\n      swap3\n      pop\n      pop\n      pop\n      jump\t// out\n        /* \"#utility.yul\":13729:13789   */\n    tag_108:\n        /* \"#utility.yul\":13757:13760   */\n      0x00\n        /* \"#utility.yul\":13778:13783   */\n      dup2\n        /* \"#utility.yul\":13771:13783   */\n      swap1\n      pop\n        /* \"#utility.yul\":13729:13789   */\n      swap2\n      swap1\n      pop\n      jump\t// out\n        /* \"#utility.yul\":13795:13937   */\n    tag_109:\n        /* \"#utility.yul\":13845:13854   */\n      0x00\n        /* \"#utility.yul\":13878:13931   */\n      tag_248\n        /* \"#utility.yul\":13896:13930   */\n      tag_249\n        /* \"#utility.yul\":13905:13929   */\n      tag_250\n        /* \"#utility.yul\":13923:13928   */\n      dup5\n        /* \"#utility.yul\":13905:13929   */\n      tag_65\n      jump\t// in\n    tag_250:\n        /* \"#utility.yul\":13896:13930   */\n      tag_108\n      jump\t// in\n    tag_249:\n        /* \"#utility.yul\":13878:13931   */\n      tag_65\n      jump\t// in\n    tag_248:\n        /* \"#utility.yul\":13865:13931   */\n      swap1\n      pop\n        /* \"#utility.yul\":13795:13937   */\n      swap2\n      swap1\n      pop\n      jump\t// out\n        /* \"#utility.yul\":13943:14018   */\n    tag_110:\n        /* \"#utility.yul\":13986:13989   */\n      0x00\n        /* \"#utility.yul\":14007:14012   */\n      dup2\n        /* \"#utility.yul\":14000:14012   */\n      swap1\n      pop\n        /* \"#utility.yul\":13943:14018   */\n      swap2\n      swap1\n      pop\n      jump\t// out\n        /* \"#utility.yul\":14024:14293   */\n    tag_111:\n        /* \"#utility.yul\":14134:14173   */\n      tag_253\n        /* \"#utility.yul\":14165:14172   */\n      dup4\n        /* \"#utility.yul\":14134:14173   */\n      tag_109\n      jump\t// in\n    tag_253:\n        /* \"#utility.yul\":14195:14286   */\n      tag_254\n        /* \"#utility.yul\":14244:14285   */\n      tag_255\n        /* \"#utility.yul\":14268:14284   */\n      dup3\n        /* \"#utility.yul\":14244:14285   */\n      tag_110\n      jump\t// in\n    tag_255:\n        /* \"#utility.yul\":14236:14242   */\n      dup5\n        /* \"#utility.yul\":14229:14233   */\n      dup5\n        /* \"#utility.yul\":14223:14234   */\n      sload\n        /* \"#utility.yul\":14195:14286   */\n      tag_107\n      jump\t// in\n    tag_254:\n        /* \"#utility.yul\":14189:14193   */\n      dup3\n        /* \"#utility.yul\":14182:14287   */\n      sstore\n        /* \"#utility.yul\":14100:14293   */\n      pop\n        /* \"#utility.yul\":14024:14293   */\n      pop\n      pop\n      pop\n      jump\t// out\n        /* \"#utility.yul\":14299:14372   */\n    tag_112:\n        /* \"#utility.yul\":14344:14347   */\n      0x00\n        /* \"#utility.yul\":14299:14372   */\n      swap1\n      jump\t// out\n        /* \"#utility.yul\":14378:14567   */\n    tag_113:\n        /* \"#utility.yul\":14455:14487   */\n      tag_258\n      tag_112\n      jump\t// in\n    tag_258:\n        /* \"#utility.yul\":14496:14561   */\n      tag_259\n        /* \"#utility.yul\":14554:14560   */\n      dup2\n        /* \"#utility.yul\":14546:14552   */\n      dup5\n        /* \"#utility.yul\":14540:14544   */\n      dup5\n        /* \"#utility.yul\":14496:14561   */\n      tag_111\n      jump\t// in\n    tag_259:\n        /* \"#utility.yul\":14431:14567   */\n      pop\n        /* \"#utility.yul\":14378:14567   */\n      pop\n      pop\n      jump\t// out\n        /* \"#utility.yul\":14573:14759   */\n    tag_114:\n        /* \"#utility.yul\":14633:14753   */\n    tag_261:\n        /* \"#utility.yul\":14650:14653   */\n      dup2\n        /* \"#utility.yul\":14643:14648   */\n      dup2\n        /* \"#utility.yul\":14640:14654   */\n      lt\n        /* \"#utility.yul\":14633:14753   */\n      iszero\n      tag_263\n      jumpi\n        /* \"#utility.yul\":14704:14743   */\n      tag_264\n        /* \"#utility.yul\":14741:14742   */\n      0x00\n        /* \"#utility.yul\":14734:14739   */\n      dup3\n        /* \"#utility.yul\":14704:14743   */\n      tag_113\n      jump\t// in\n    tag_264:\n        /* \"#utility.yul\":14677:14678   */\n      0x01\n        /* \"#utility.yul\":14670:14675   */\n      dup2\n        /* \"#utility.yul\":14666:14679   */\n      add\n        /* \"#utility.yul\":14657:14679   */\n      swap1\n      pop\n        /* \"#utility.yul\":14633:14753   */\n      jump(tag_261)\n    tag_263:\n        /* \"#utility.yul\":14573:14759   */\n      pop\n      pop\n      jump\t// out\n        /* \"#utility.yul\":14765:15308   */\n    tag_115:\n        /* \"#utility.yul\":14866:14868   */\n      0x1f\n        /* \"#utility.yul\":14861:14864   */\n      dup3\n        /* \"#utility.yul\":14858:14869   */\n      gt\n        /* \"#utility.yul\":14855:15301   */\n      iszero\n      tag_266\n      jumpi\n        /* \"#utility.yul\":14900:14938   */\n      tag_267\n        /* \"#utility.yul\":14932:14937   */\n      dup2\n        /* \"#utility.yul\":14900:14938   */\n      tag_104\n      jump\t// in\n    tag_267:\n        /* \"#utility.yul\":14984:15013   */\n      tag_268\n        /* \"#utility.yul\":15002:15012   */\n      dup5\n        /* \"#utility.yul\":14984:15013   */\n      tag_105\n      jump\t// in\n    tag_268:\n        /* \"#utility.yul\":14974:14982   */\n      dup2\n        /* \"#utility.yul\":14970:15014   */\n      add\n        /* \"#utility.yul\":15167:15169   */\n      0x20\n        /* \"#utility.yul\":15155:15165   */\n      dup6\n        /* \"#utility.yul\":15152:15170   */\n      lt\n        /* \"#utility.yul\":15149:15198   */\n      iszero\n      tag_269\n      jumpi\n        /* \"#utility.yul\":15188:15196   */\n      dup2\n        /* \"#utility.yul\":15173:15196   */\n      swap1\n      pop\n        /* \"#utility.yul\":15149:15198   */\n    tag_269:\n        /* \"#utility.yul\":15211:15291   */\n      tag_270\n        /* \"#utility.yul\":15267:15289   */\n      tag_271\n        /* \"#utility.yul\":15285:15288   */\n      dup6\n        /* \"#utility.yul\":15267:15289   */\n      tag_105\n      jump\t// in\n    tag_271:\n        /* \"#utility.yul\":15257:15265   */\n      dup4\n        /* \"#utility.yul\":15253:15290   */\n      add\n        /* \"#utility.yul\":15240:15251   */\n      dup3\n        /* \"#utility.yul\":15211:15291   */\n      tag_114\n      jump\t// in\n    tag_270:\n        /* \"#utility.yul\":14870:15301   */\n      pop\n      pop\n        /* \"#utility.yul\":14855:15301   */\n    tag_266:\n        /* \"#utility.yul\":14765:15308   */\n      pop\n      pop\n      pop\n      jump\t// out\n        /* \"#utility.yul\":15314:15431   */\n    tag_116:\n        /* \"#utility.yul\":15368:15376   */\n      0x00\n        /* \"#utility.yul\":15418:15423   */\n      dup3\n        /* \"#utility.yul\":15412:15416   */\n      dup3\n        /* \"#utility.yul\":15408:15424   */\n      shr\n        /* \"#utility.yul\":15387:15424   */\n      swap1\n      pop\n        /* \"#utility.yul\":15314:15431   */\n      swap3\n      swap2\n      pop\n      pop\n      jump\t// out\n        /* \"#utility.yul\":15437:15606   */\n    tag_117:\n        /* \"#utility.yul\":15481:15487   */\n      0x00\n        /* \"#utility.yul\":15514:15565   */\n      tag_274\n        /* \"#utility.yul\":15562:15563   */\n      0x00\n        /* \"#utility.yul\":15558:15564   */\n      not\n        /* \"#utility.yul\":15550:15555   */\n      dup5\n        /* \"#utility.yul\":15547:15548   */\n      0x08\n        /* \"#utility.yul\":15543:15556   */\n      mul\n        /* \"#utility.yul\":15514:15565   */\n      tag_116\n      jump\t// in\n    tag_274:\n        /* \"#utility.yul\":15510:15566   */\n      not\n        /* \"#utility.yul\":15595:15599   */\n      dup1\n        /* \"#utility.yul\":15589:15593   */\n      dup4\n        /* \"#utility.yul\":15585:15600   */\n      and\n        /* \"#utility.yul\":15575:15600   */\n      swap2\n      pop\n        /* \"#utility.yul\":15488:15606   */\n      pop\n        /* \"#utility.yul\":15437:15606   */\n      swap3\n      swap2\n      pop\n      pop\n      jump\t// out\n        /* \"#utility.yul\":15611:15906   */\n    tag_118:\n        /* \"#utility.yul\":15687:15691   */\n      0x00\n        /* \"#utility.yul\":15833:15862   */\n      tag_276\n        /* \"#utility.yul\":15858:15861   */\n      dup4\n        /* \"#utility.yul\":15852:15856   */\n      dup4\n        /* \"#utility.yul\":15833:15862   */\n      tag_117\n      jump\t// in\n    tag_276:\n        /* \"#utility.yul\":15825:15862   */\n      swap2\n      pop\n        /* \"#utility.yul\":15895:15898   */\n      dup3\n        /* \"#utility.yul\":15892:15893   */\n      0x02\n        /* \"#utility.yul\":15888:15899   */\n      mul\n        /* \"#utility.yul\":15882:15886   */\n      dup3\n        /* \"#utility.yul\":15879:15900   */\n      or\n        /* \"#utility.yul\":15871:15900   */\n      swap1\n      pop\n        /* \"#utility.yul\":15611:15906   */\n      swap3\n      swap2\n      pop\n      pop\n      jump\t// out\n        /* \"#utility.yul\":15911:17306   */\n    tag_34:\n        /* \"#utility.yul\":16028:16065   */\n      tag_278\n        /* \"#utility.yul\":16061:16064   */\n      dup3\n        /* \"#utility.yul\":16028:16065   */\n      tag_86\n      jump\t// in\n    tag_278:\n        /* \"#utility.yul\":16130:16148   */\n      0xffffffffffffffff\n        /* \"#utility.yul\":16122:16128   */\n      dup2\n        /* \"#utility.yul\":16119:16149   */\n      gt\n        /* \"#utility.yul\":16116:16172   */\n      iszero\n      tag_279\n      jumpi\n        /* \"#utility.yul\":16152:16170   */\n      tag_280\n      tag_75\n      jump\t// in\n    tag_280:\n        /* \"#utility.yul\":16116:16172   */\n    tag_279:\n        /* \"#utility.yul\":16196:16234   */\n      tag_281\n        /* \"#utility.yul\":16228:16232   */\n      dup3\n        /* \"#utility.yul\":16222:16233   */\n      sload\n        /* \"#utility.yul\":16196:16234   */\n      tag_43\n      jump\t// in\n    tag_281:\n        /* \"#utility.yul\":16281:16348   */\n      tag_282\n        /* \"#utility.yul\":16341:16347   */\n      dup3\n        /* \"#utility.yul\":16333:16339   */\n      dup3\n        /* \"#utility.yul\":16327:16331   */\n      dup6\n        /* \"#utility.yul\":16281:16348   */\n      tag_115\n      jump\t// in\n    tag_282:\n        /* \"#utility.yul\":16375:16376   */\n      0x00\n        /* \"#utility.yul\":16399:16403   */\n      0x20\n        /* \"#utility.yul\":16386:16403   */\n      swap1\n      pop\n        /* \"#utility.yul\":16431:16433   */\n      0x1f\n        /* \"#utility.yul\":16423:16429   */\n      dup4\n        /* \"#utility.yul\":16420:16434   */\n      gt\n        /* \"#utility.yul\":16448:16449   */\n      0x01\n        /* \"#utility.yul\":16443:17061   */\n      dup2\n      eq\n      tag_284\n      jumpi\n        /* \"#utility.yul\":17105:17106   */\n      0x00\n        /* \"#utility.yul\":17122:17128   */\n      dup5\n        /* \"#utility.yul\":17119:17196   */\n      iszero\n      tag_285\n      jumpi\n        /* \"#utility.yul\":17171:17180   */\n      dup3\n        /* \"#utility.yul\":17166:17169   */\n      dup8\n        /* \"#utility.yul\":17162:17181   */\n      add\n        /* \"#utility.yul\":17156:17182   */\n      mload\n        /* \"#utility.yul\":17147:17182   */\n      swap1\n      pop\n        /* \"#utility.yul\":17119:17196   */\n    tag_285:\n        /* \"#utility.yul\":17222:17289   */\n      tag_286\n        /* \"#utility.yul\":17282:17288   */\n      dup6\n        /* \"#utility.yul\":17275:17280   */\n      dup3\n        /* \"#utility.yul\":17222:17289   */\n      tag_118\n      jump\t// in\n    tag_286:\n        /* \"#utility.yul\":17216:17220   */\n      dup7\n        /* \"#utility.yul\":17209:17290   */\n      sstore\n        /* \"#utility.yul\":17078:17300   */\n      pop\n        /* \"#utility.yul\":16413:17300   */\n      jump(tag_283)\n        /* \"#utility.yul\":16443:17061   */\n    tag_284:\n        /* \"#utility.yul\":16495:16499   */\n      0x1f\n        /* \"#utility.yul\":16491:16500   */\n      not\n        /* \"#utility.yul\":16483:16489   */\n      dup5\n        /* \"#utility.yul\":16479:16501   */\n      and\n        /* \"#utility.yul\":16529:16566   */\n      tag_287\n        /* \"#utility.yul\":16561:16565   */\n      dup7\n        /* \"#utility.yul\":16529:16566   */\n      tag_104\n      jump\t// in\n    tag_287:\n        /* \"#utility.yul\":16588:16589   */\n      0x00\n        /* \"#utility.yul\":16602:16810   */\n    tag_288:\n        /* \"#utility.yul\":16616:16623   */\n      dup3\n        /* \"#utility.yul\":16613:16614   */\n      dup2\n        /* \"#utility.yul\":16610:16624   */\n      lt\n        /* \"#utility.yul\":16602:16810   */\n      iszero\n      tag_290\n      jumpi\n        /* \"#utility.yul\":16695:16704   */\n      dup5\n        /* \"#utility.yul\":16690:16693   */\n      dup10\n        /* \"#utility.yul\":16686:16705   */\n      add\n        /* \"#utility.yul\":16680:16706   */\n      mload\n        /* \"#utility.yul\":16672:16678   */\n      dup3\n        /* \"#utility.yul\":16665:16707   */\n      sstore\n        /* \"#utility.yul\":16746:16747   */\n      0x01\n        /* \"#utility.yul\":16738:16744   */\n      dup3\n        /* \"#utility.yul\":16734:16748   */\n      add\n        /* \"#utility.yul\":16724:16748   */\n      swap2\n      pop\n        /* \"#utility.yul\":16793:16795   */\n      0x20\n        /* \"#utility.yul\":16782:16791   */\n      dup6\n        /* \"#utility.yul\":16778:16796   */\n      add\n        /* \"#utility.yul\":16765:16796   */\n      swap5\n      pop\n        /* \"#utility.yul\":16639:16643   */\n      0x20\n        /* \"#utility.yul\":16636:16637   */\n      dup2\n        /* \"#utility.yul\":16632:16644   */\n      add\n        /* \"#utility.yul\":16627:16644   */\n      swap1\n      pop\n        /* \"#utility.yul\":16602:16810   */\n      jump(tag_288)\n    tag_290:\n        /* \"#utility.yul\":16838:16844   */\n      dup7\n        /* \"#utility.yul\":16829:16836   */\n      dup4\n        /* \"#utility.yul\":16826:16845   */\n      lt\n        /* \"#utility.yul\":16823:17002   */\n      iszero\n      tag_291\n      jumpi\n        /* \"#utility.yul\":16896:16905   */\n      dup5\n        /* \"#utility.yul\":16891:16894   */\n      dup10\n        /* \"#utility.yul\":16887:16906   */\n      add\n        /* \"#utility.yul\":16881:16907   */\n      mload\n        /* \"#utility.yul\":16939:16987   */\n      tag_292\n        /* \"#utility.yul\":16981:16985   */\n      0x1f\n        /* \"#utility.yul\":16973:16979   */\n      dup10\n        /* \"#utility.yul\":16969:16986   */\n      and\n        /* \"#utility.yul\":16958:16967   */\n      dup3\n        /* \"#utility.yul\":16939:16987   */\n      tag_117\n      jump\t// in\n    tag_292:\n        /* \"#utility.yul\":16931:16937   */\n      dup4\n        /* \"#utility.yul\":16924:16988   */\n      sstore\n        /* \"#utility.yul\":16846:17002   */\n      pop\n        /* \"#utility.yul\":16823:17002   */\n    tag_291:\n        /* \"#utility.yul\":17048:17049   */\n      0x01\n        /* \"#utility.yul\":17044:17045   */\n      0x02\n        /* \"#utility.yul\":17036:17042   */\n      dup9\n        /* \"#utility.yul\":17032:17046   */\n      mul\n        /* \"#utility.yul\":17028:17050   */\n      add\n        /* \"#utility.yul\":17022:17026   */\n      dup9\n        /* \"#utility.yul\":17015:17051   */\n      sstore\n        /* \"#utility.yul\":16450:17061   */\n      pop\n      pop\n      pop\n        /* \"#utility.yul\":16413:17300   */\n    tag_283:\n      pop\n        /* \"#utility.yul\":16003:17306   */\n      pop\n      pop\n      pop\n        /* \"#utility.yul\":15911:17306   */\n      pop\n      pop\n      jump\t// out\n\n    auxdata: 0xa2646970667358221220dd572d17b4a9c94ca8f501ea8a92995221e56479bb1431f8df68332ddc07777664736f6c63430008180033\n}\n",
				"bytecode": {
					"linkReferences": {},
					"object": "608060405234801561000f575f80fd5b50610ef68061001d5f395ff3fe608060405234801561000f575f80fd5b506004361061003f575f3560e01c8063529d499214610043578063bd47a8dd1461005f578063d7d690611461007b575b5f80fd5b61005d6004803603810190610058919061068f565b610099565b005b61007960048036038101906100749190610850565b6101ac565b005b610083610311565b6040516100909190610b32565b60405180910390f35b5f600282815481106100ae576100ad610b52565b5b905f5260205f209060040201905060015f3373ffffffffffffffffffffffffffffffffffffffff1673ffffffffffffffffffffffffffffffffffffffff1681526020019081526020015f205f9054906101000a900460ff1615610146576040517f08c379a000000000000000000000000000000000000000000000000000000000815260040161013d90610bd9565b60405180910390fd5b8060030133908060018154018082558091505060019003905f5260205f20015f9091909190916101000a81548173ffffffffffffffffffffffffffffffffffffffff021916908373ffffffffffffffffffffffffffffffffffffffff1602179055505050565b5f8054906101000a900473ffffffffffffffffffffffffffffffffffffffff1673ffffffffffffffffffffffffffffffffffffffff163373ffffffffffffffffffffffffffffffffffffffff1614610202575f80fd5b61020a61056c565b83815f019073ffffffffffffffffffffffffffffffffffffffff16908173ffffffffffffffffffffffffffffffffffffffff1681525050828160200181905250818160400181905250600281908060018154018082558091505060019003905f5260205f2090600402015f909190919091505f820151815f015f6101000a81548173ffffffffffffffffffffffffffffffffffffffff021916908373ffffffffffffffffffffffffffffffffffffffff16021790555060208201518160010190816102d59190610df1565b5060408201518160020190816102eb9190610df1565b5060608201518160030190805190602001906103089291906105a9565b50505050505050565b60606002805480602002602001604051908101604052809291908181526020015f905b82821015610563578382905f5260205f2090600402016040518060800160405290815f82015f9054906101000a900473ffffffffffffffffffffffffffffffffffffffff1673ffffffffffffffffffffffffffffffffffffffff1673ffffffffffffffffffffffffffffffffffffffff1681526020016001820180546103b990610c24565b80601f01602080910402602001604051908101604052809291908181526020018280546103e590610c24565b80156104305780601f1061040757610100808354040283529160200191610430565b820191905f5260205f20905b81548152906001019060200180831161041357829003601f168201915b5050505050815260200160028201805461044990610c24565b80601f016020809104026020016040519081016040528092919081815260200182805461047590610c24565b80156104c05780601f10610497576101008083540402835291602001916104c0565b820191905f5260205f20905b8154815290600101906020018083116104a357829003601f168201915b505050505081526020016003820180548060200260200160405190810160405280929190818152602001828054801561054b57602002820191905f5260205f20905b815f9054906101000a900473ffffffffffffffffffffffffffffffffffffffff1673ffffffffffffffffffffffffffffffffffffffff1681526020019060010190808311610502575b50505050508152505081526020019060010190610334565b50505050905090565b60405180608001604052805f73ffffffffffffffffffffffffffffffffffffffff1681526020016060815260200160608152602001606081525090565b828054828255905f5260205f2090810192821561061f579160200282015b8281111561061e578251825f6101000a81548173ffffffffffffffffffffffffffffffffffffffff021916908373ffffffffffffffffffffffffffffffffffffffff160217905550916020019190600101906105c7565b5b50905061062c9190610630565b5090565b5b80821115610647575f815f905550600101610631565b5090565b5f604051905090565b5f80fd5b5f80fd5b5f819050919050565b61066e8161065c565b8114610678575f80fd5b50565b5f8135905061068981610665565b92915050565b5f602082840312156106a4576106a3610654565b5b5f6106b18482850161067b565b91505092915050565b5f73ffffffffffffffffffffffffffffffffffffffff82169050919050565b5f6106e3826106ba565b9050919050565b6106f3816106d9565b81146106fd575f80fd5b50565b5f8135905061070e816106ea565b92915050565b5f80fd5b5f80fd5b5f601f19601f8301169050919050565b7f4e487b71000000000000000000000000000000000000000000000000000000005f52604160045260245ffd5b6107628261071c565b810181811067ffffffffffffffff821117156107815761078061072c565b5b80604052505050565b5f61079361064b565b905061079f8282610759565b919050565b5f67ffffffffffffffff8211156107be576107bd61072c565b5b6107c78261071c565b9050602081019050919050565b828183375f83830152505050565b5f6107f46107ef846107a4565b61078a565b9050828152602081018484840111156108105761080f610718565b5b61081b8482856107d4565b509392505050565b5f82601f83011261083757610836610714565b5b81356108478482602086016107e2565b91505092915050565b5f805f6060848603121561086757610866610654565b5b5f61087486828701610700565b935050602084013567ffffffffffffffff81111561089557610894610658565b5b6108a186828701610823565b925050604084013567ffffffffffffffff8111156108c2576108c1610658565b5b6108ce86828701610823565b9150509250925092565b5f81519050919050565b5f82825260208201905092915050565b5f819050602082019050919050565b61090a816106d9565b82525050565b5f81519050919050565b5f82825260208201905092915050565b5f5b8381101561094757808201518184015260208101905061092c565b5f8484015250505050565b5f61095c82610910565b610966818561091a565b935061097681856020860161092a565b61097f8161071c565b840191505092915050565b5f81519050919050565b5f82825260208201905092915050565b5f819050602082019050919050565b5f6109be8383610901565b60208301905092915050565b5f602082019050919050565b5f6109e08261098a565b6109ea8185610994565b93506109f5836109a4565b805f5b83811015610a25578151610a0c88826109b3565b9750610a17836109ca565b9250506001810190506109f8565b5085935050505092915050565b5f608083015f830151610a475f860182610901565b5060208301518482036020860152610a5f8282610952565b91505060408301518482036040860152610a798282610952565b91505060608301518482036060860152610a9382826109d6565b9150508091505092915050565b5f610aab8383610a32565b905092915050565b5f602082019050919050565b5f610ac9826108d8565b610ad381856108e2565b935083602082028501610ae5856108f2565b805f5b85811015610b205784840389528151610b018582610aa0565b9450610b0c83610ab3565b925060208a01995050600181019050610ae8565b50829750879550505050505092915050565b5f6020820190508181035f830152610b4a8184610abf565b905092915050565b7f4e487b71000000000000000000000000000000000000000000000000000000005f52603260045260245ffd5b5f82825260208201905092915050565b7f63616e2774207369676e207477696365000000000000000000000000000000005f82015250565b5f610bc3601083610b7f565b9150610bce82610b8f565b602082019050919050565b5f6020820190508181035f830152610bf081610bb7565b9050919050565b7f4e487b71000000000000000000000000000000000000000000000000000000005f52602260045260245ffd5b5f6002820490506001821680610c3b57607f821691505b602082108103610c4e57610c4d610bf7565b5b50919050565b5f819050815f5260205f209050919050565b5f6020601f8301049050919050565b5f82821b905092915050565b5f60088302610cb07fffffffffffffffffffffffffffffffffffffffffffffffffffffffffffffffff82610c75565b610cba8683610c75565b95508019841693508086168417925050509392505050565b5f819050919050565b5f610cf5610cf0610ceb8461065c565b610cd2565b61065c565b9050919050565b5f819050919050565b610d0e83610cdb565b610d22610d1a82610cfc565b848454610c81565b825550505050565b5f90565b610d36610d2a565b610d41818484610d05565b505050565b5b81811015610d6457610d595f82610d2e565b600181019050610d47565b5050565b601f821115610da957610d7a81610c54565b610d8384610c66565b81016020851015610d92578190505b610da6610d9e85610c66565b830182610d46565b50505b505050565b5f82821c905092915050565b5f610dc95f1984600802610dae565b1980831691505092915050565b5f610de18383610dba565b9150826002028217905092915050565b610dfa82610910565b67ffffffffffffffff811115610e1357610e1261072c565b5b610e1d8254610c24565b610e28828285610d68565b5f60209050601f831160018114610e59575f8415610e47578287015190505b610e518582610dd6565b865550610eb8565b601f198416610e6786610c54565b5f5b82811015610e8e57848901518255600182019150602085019450602081019050610e69565b86831015610eab5784890151610ea7601f891682610dba565b8355505b6001600288020188555050505b50505050505056fea2646970667358221220dd572d17b4a9c94ca8f501ea8a92995221e56479bb1431f8df68332ddc07777664736f6c63430008180033",
					"opcodes": "PUSH1 0x80 PUSH1 0x40 MSTORE CALLVALUE DUP1 ISZERO PUSH2 0xF JUMPI PUSH0 DUP1 REVERT JUMPDEST POP PUSH2 0xEF6 DUP1 PUSH2 0x1D PUSH0 CODECOPY PUSH0 RETURN INVALID PUSH1 0x80 PUSH1 0x40 MSTORE CALLVALUE DUP1 ISZERO PUSH2 0xF JUMPI PUSH0 DUP1 REVERT JUMPDEST POP PUSH1 0x4 CALLDATASIZE LT PUSH2 0x3F JUMPI PUSH0 CALLDATALOAD PUSH1 0xE0 SHR DUP1 PUSH4 0x529D4992 EQ PUSH2 0x43 JUMPI DUP1 PUSH4 0xBD47A8DD EQ PUSH2 0x5F JUMPI DUP1 PUSH4 0xD7D69061 EQ PUSH2 0x7B JUMPI JUMPDEST PUSH0 DUP1 REVERT JUMPDEST PUSH2 0x5D PUSH1 0x4 DUP1 CALLDATASIZE SUB DUP2 ADD SWAP1 PUSH2 0x58 SWAP2 SWAP1 PUSH2 0x68F JUMP JUMPDEST PUSH2 0x99 JUMP JUMPDEST STOP JUMPDEST PUSH2 0x79 PUSH1 0x4 DUP1 CALLDATASIZE SUB DUP2 ADD SWAP1 PUSH2 0x74 SWAP2 SWAP1 PUSH2 0x850 JUMP JUMPDEST PUSH2 0x1AC JUMP JUMPDEST STOP JUMPDEST PUSH2 0x83 PUSH2 0x311 JUMP JUMPDEST PUSH1 0x40 MLOAD PUSH2 0x90 SWAP2 SWAP1 PUSH2 0xB32 JUMP JUMPDEST PUSH1 0x40 MLOAD DUP1 SWAP2 SUB SWAP1 RETURN JUMPDEST PUSH0 PUSH1 0x2 DUP3 DUP2 SLOAD DUP2 LT PUSH2 0xAE JUMPI PUSH2 0xAD PUSH2 0xB52 JUMP JUMPDEST JUMPDEST SWAP1 PUSH0 MSTORE PUSH1 0x20 PUSH0 KECCAK256 SWAP1 PUSH1 0x4 MUL ADD SWAP1 POP PUSH1 0x1 PUSH0 CALLER PUSH20 0xFFFFFFFFFFFFFFFFFFFFFFFFFFFFFFFFFFFFFFFF AND PUSH20 0xFFFFFFFFFFFFFFFFFFFFFFFFFFFFFFFFFFFFFFFF AND DUP2 MSTORE PUSH1 0x20 ADD SWAP1 DUP2 MSTORE PUSH1 0x20 ADD PUSH0 KECCAK256 PUSH0 SWAP1 SLOAD SWAP1 PUSH2 0x100 EXP SWAP1 DIV PUSH1 0xFF AND ISZERO PUSH2 0x146 JUMPI PUSH1 0x40 MLOAD PUSH32 0x8C379A000000000000000000000000000000000000000000000000000000000 DUP2 MSTORE PUSH1 0x4 ADD PUSH2 0x13D SWAP1 PUSH2 0xBD9 JUMP JUMPDEST PUSH1 0x40 MLOAD DUP1 SWAP2 SUB SWAP1 REVERT JUMPDEST DUP1 PUSH1 0x3 ADD CALLER SWAP1 DUP1 PUSH1 0x1 DUP2 SLOAD ADD DUP1 DUP3 SSTORE DUP1 SWAP2 POP POP PUSH1 0x1 SWAP1 SUB SWAP1 PUSH0 MSTORE PUSH1 0x20 PUSH0 KECCAK256 ADD PUSH0 SWAP1 SWAP2 SWAP1 SWAP2 SWAP1 SWAP2 PUSH2 0x100 EXP DUP2 SLOAD DUP2 PUSH20 0xFFFFFFFFFFFFFFFFFFFFFFFFFFFFFFFFFFFFFFFF MUL NOT AND SWAP1 DUP4 PUSH20 0xFFFFFFFFFFFFFFFFFFFFFFFFFFFFFFFFFFFFFFFF AND MUL OR SWAP1 SSTORE POP POP POP JUMP JUMPDEST PUSH0 DUP1 SLOAD SWAP1 PUSH2 0x100 EXP SWAP1 DIV PUSH20 0xFFFFFFFFFFFFFFFFFFFFFFFFFFFFFFFFFFFFFFFF AND PUSH20 0xFFFFFFFFFFFFFFFFFFFFFFFFFFFFFFFFFFFFFFFF AND CALLER PUSH20 0xFFFFFFFFFFFFFFFFFFFFFFFFFFFFFFFFFFFFFFFF AND EQ PUSH2 0x202 JUMPI PUSH0 DUP1 REVERT JUMPDEST PUSH2 0x20A PUSH2 0x56C JUMP JUMPDEST DUP4 DUP2 PUSH0 ADD SWAP1 PUSH20 0xFFFFFFFFFFFFFFFFFFFFFFFFFFFFFFFFFFFFFFFF AND SWAP1 DUP2 PUSH20 0xFFFFFFFFFFFFFFFFFFFFFFFFFFFFFFFFFFFFFFFF AND DUP2 MSTORE POP POP DUP3 DUP2 PUSH1 0x20 ADD DUP2 SWAP1 MSTORE POP DUP2 DUP2 PUSH1 0x40 ADD DUP2 SWAP1 MSTORE POP PUSH1 0x2 DUP2 SWAP1 DUP1 PUSH1 0x1 DUP2 SLOAD ADD DUP1 DUP3 SSTORE DUP1 SWAP2 POP POP PUSH1 0x1 SWAP1 SUB SWAP1 PUSH0 MSTORE PUSH1 0x20 PUSH0 KECCAK256 SWAP1 PUSH1 0x4 MUL ADD PUSH0 SWAP1 SWAP2 SWAP1 SWAP2 SWAP1 SWAP2 POP PUSH0 DUP3 ADD MLOAD DUP2 PUSH0 ADD PUSH0 PUSH2 0x100 EXP DUP2 SLOAD DUP2 PUSH20 0xFFFFFFFFFFFFFFFFFFFFFFFFFFFFFFFFFFFFFFFF MUL NOT AND SWAP1 DUP4 PUSH20 0xFFFFFFFFFFFFFFFFFFFFFFFFFFFFFFFFFFFFFFFF AND MUL OR SWAP1 SSTORE POP PUSH1 0x20 DUP3 ADD MLOAD DUP2 PUSH1 0x1 ADD SWAP1 DUP2 PUSH2 0x2D5 SWAP2 SWAP1 PUSH2 0xDF1 JUMP JUMPDEST POP PUSH1 0x40 DUP3 ADD MLOAD DUP2 PUSH1 0x2 ADD SWAP1 DUP2 PUSH2 0x2EB SWAP2 SWAP1 PUSH2 0xDF1 JUMP JUMPDEST POP PUSH1 0x60 DUP3 ADD MLOAD DUP2 PUSH1 0x3 ADD SWAP1 DUP1 MLOAD SWAP1 PUSH1 0x20 ADD SWAP1 PUSH2 0x308 SWAP3 SWAP2 SWAP1 PUSH2 0x5A9 JUMP JUMPDEST POP POP POP POP POP POP POP JUMP JUMPDEST PUSH1 0x60 PUSH1 0x2 DUP1 SLOAD DUP1 PUSH1 0x20 MUL PUSH1 0x20 ADD PUSH1 0x40 MLOAD SWAP1 DUP2 ADD PUSH1 0x40 MSTORE DUP1 SWAP3 SWAP2 SWAP1 DUP2 DUP2 MSTORE PUSH1 0x20 ADD PUSH0 SWAP1 JUMPDEST DUP3 DUP3 LT ISZERO PUSH2 0x563 JUMPI DUP4 DUP3 SWAP1 PUSH0 MSTORE PUSH1 0x20 PUSH0 KECCAK256 SWAP1 PUSH1 0x4 MUL ADD PUSH1 0x40 MLOAD DUP1 PUSH1 0x80 ADD PUSH1 0x40 MSTORE SWAP1 DUP2 PUSH0 DUP3 ADD PUSH0 SWAP1 SLOAD SWAP1 PUSH2 0x100 EXP SWAP1 DIV PUSH20 0xFFFFFFFFFFFFFFFFFFFFFFFFFFFFFFFFFFFFFFFF AND PUSH20 0xFFFFFFFFFFFFFFFFFFFFFFFFFFFFFFFFFFFFFFFF AND PUSH20 0xFFFFFFFFFFFFFFFFFFFFFFFFFFFFFFFFFFFFFFFF AND DUP2 MSTORE PUSH1 0x20 ADD PUSH1 0x1 DUP3 ADD DUP1 SLOAD PUSH2 0x3B9 SWAP1 PUSH2 0xC24 JUMP JUMPDEST DUP1 PUSH1 0x1F ADD PUSH1 0x20 DUP1 SWAP2 DIV MUL PUSH1 0x20 ADD PUSH1 0x40 MLOAD SWAP1 DUP2 ADD PUSH1 0x40 MSTORE DUP1 SWAP3 SWAP2 SWAP1 DUP2 DUP2 MSTORE PUSH1 0x20 ADD DUP3 DUP1 SLOAD PUSH2 0x3E5 SWAP1 PUSH2 0xC24 JUMP JUMPDEST DUP1 ISZERO PUSH2 0x430 JUMPI DUP1 PUSH1 0x1F LT PUSH2 0x407 JUMPI PUSH2 0x100 DUP1 DUP4 SLOAD DIV MUL DUP4 MSTORE SWAP2 PUSH1 0x20 ADD SWAP2 PUSH2 0x430 JUMP JUMPDEST DUP3 ADD SWAP2 SWAP1 PUSH0 MSTORE PUSH1 0x20 PUSH0 KECCAK256 SWAP1 JUMPDEST DUP2 SLOAD DUP2 MSTORE SWAP1 PUSH1 0x1 ADD SWAP1 PUSH1 0x20 ADD DUP1 DUP4 GT PUSH2 0x413 JUMPI DUP3 SWAP1 SUB PUSH1 0x1F AND DUP3 ADD SWAP2 JUMPDEST POP POP POP POP POP DUP2 MSTORE PUSH1 0x20 ADD PUSH1 0x2 DUP3 ADD DUP1 SLOAD PUSH2 0x449 SWAP1 PUSH2 0xC24 JUMP JUMPDEST DUP1 PUSH1 0x1F ADD PUSH1 0x20 DUP1 SWAP2 DIV MUL PUSH1 0x20 ADD PUSH1 0x40 MLOAD SWAP1 DUP2 ADD PUSH1 0x40 MSTORE DUP1 SWAP3 SWAP2 SWAP1 DUP2 DUP2 MSTORE PUSH1 0x20 ADD DUP3 DUP1 SLOAD PUSH2 0x475 SWAP1 PUSH2 0xC24 JUMP JUMPDEST DUP1 ISZERO PUSH2 0x4C0 JUMPI DUP1 PUSH1 0x1F LT PUSH2 0x497 JUMPI PUSH2 0x100 DUP1 DUP4 SLOAD DIV MUL DUP4 MSTORE SWAP2 PUSH1 0x20 ADD SWAP2 PUSH2 0x4C0 JUMP JUMPDEST DUP3 ADD SWAP2 SWAP1 PUSH0 MSTORE PUSH1 0x20 PUSH0 KECCAK256 SWAP1 JUMPDEST DUP2 SLOAD DUP2 MSTORE SWAP1 PUSH1 0x1 ADD SWAP1 PUSH1 0x20 ADD DUP1 DUP4 GT PUSH2 0x4A3 JUMPI DUP3 SWAP1 SUB PUSH1 0x1F AND DUP3 ADD SWAP2 JUMPDEST POP POP POP POP POP DUP2 MSTORE PUSH1 0x20 ADD PUSH1 0x3 DUP3 ADD DUP1 SLOAD DUP1 PUSH1 0x20 MUL PUSH1 0x20 ADD PUSH1 0x40 MLOAD SWAP1 DUP2 ADD PUSH1 0x40 MSTORE DUP1 SWAP3 SWAP2 SWAP1 DUP2 DUP2 MSTORE PUSH1 0x20 ADD DUP3 DUP1 SLOAD DUP1 ISZERO PUSH2 0x54B JUMPI PUSH1 0x20 MUL DUP3 ADD SWAP2 SWAP1 PUSH0 MSTORE PUSH1 0x20 PUSH0 KECCAK256 SWAP1 JUMPDEST DUP2 PUSH0 SWAP1 SLOAD SWAP1 PUSH2 0x100 EXP SWAP1 DIV PUSH20 0xFFFFFFFFFFFFFFFFFFFFFFFFFFFFFFFFFFFFFFFF AND PUSH20 0xFFFFFFFFFFFFFFFFFFFFFFFFFFFFFFFFFFFFFFFF AND DUP2 MSTORE PUSH1 0x20 ADD SWAP1 PUSH1 0x1 ADD SWAP1 DUP1 DUP4 GT PUSH2 0x502 JUMPI JUMPDEST POP POP POP POP POP DUP2 MSTORE POP POP DUP2 MSTORE PUSH1 0x20 ADD SWAP1 PUSH1 0x1 ADD SWAP1 PUSH2 0x334 JUMP JUMPDEST POP POP POP POP SWAP1 POP SWAP1 JUMP JUMPDEST PUSH1 0x40 MLOAD DUP1 PUSH1 0x80 ADD PUSH1 0x40 MSTORE DUP1 PUSH0 PUSH20 0xFFFFFFFFFFFFFFFFFFFFFFFFFFFFFFFFFFFFFFFF AND DUP2 MSTORE PUSH1 0x20 ADD PUSH1 0x60 DUP2 MSTORE PUSH1 0x20 ADD PUSH1 0x60 DUP2 MSTORE PUSH1 0x20 ADD PUSH1 0x60 DUP2 MSTORE POP SWAP1 JUMP JUMPDEST DUP3 DUP1 SLOAD DUP3 DUP3 SSTORE SWAP1 PUSH0 MSTORE PUSH1 0x20 PUSH0 KECCAK256 SWAP1 DUP2 ADD SWAP3 DUP3 ISZERO PUSH2 0x61F JUMPI SWAP2 PUSH1 0x20 MUL DUP3 ADD JUMPDEST DUP3 DUP2 GT ISZERO PUSH2 0x61E JUMPI DUP3 MLOAD DUP3 PUSH0 PUSH2 0x100 EXP DUP2 SLOAD DUP2 PUSH20 0xFFFFFFFFFFFFFFFFFFFFFFFFFFFFFFFFFFFFFFFF MUL NOT AND SWAP1 DUP4 PUSH20 0xFFFFFFFFFFFFFFFFFFFFFFFFFFFFFFFFFFFFFFFF AND MUL OR SWAP1 SSTORE POP SWAP2 PUSH1 0x20 ADD SWAP2 SWAP1 PUSH1 0x1 ADD SWAP1 PUSH2 0x5C7 JUMP JUMPDEST JUMPDEST POP SWAP1 POP PUSH2 0x62C SWAP2 SWAP1 PUSH2 0x630 JUMP JUMPDEST POP SWAP1 JUMP JUMPDEST JUMPDEST DUP1 DUP3 GT ISZERO PUSH2 0x647 JUMPI PUSH0 DUP2 PUSH0 SWAP1 SSTORE POP PUSH1 0x1 ADD PUSH2 0x631 JUMP JUMPDEST POP SWAP1 JUMP JUMPDEST PUSH0 PUSH1 0x40 MLOAD SWAP1 POP SWAP1 JUMP JUMPDEST PUSH0 DUP1 REVERT JUMPDEST PUSH0 DUP1 REVERT JUMPDEST PUSH0 DUP2 SWAP1 POP SWAP2 SWAP1 POP JUMP JUMPDEST PUSH2 0x66E DUP2 PUSH2 0x65C JUMP JUMPDEST DUP2 EQ PUSH2 0x678 JUMPI PUSH0 DUP1 REVERT JUMPDEST POP JUMP JUMPDEST PUSH0 DUP2 CALLDATALOAD SWAP1 POP PUSH2 0x689 DUP2 PUSH2 0x665 JUMP JUMPDEST SWAP3 SWAP2 POP POP JUMP JUMPDEST PUSH0 PUSH1 0x20 DUP3 DUP5 SUB SLT ISZERO PUSH2 0x6A4 JUMPI PUSH2 0x6A3 PUSH2 0x654 JUMP JUMPDEST JUMPDEST PUSH0 PUSH2 0x6B1 DUP5 DUP3 DUP6 ADD PUSH2 0x67B JUMP JUMPDEST SWAP2 POP POP SWAP3 SWAP2 POP POP JUMP JUMPDEST PUSH0 PUSH20 0xFFFFFFFFFFFFFFFFFFFFFFFFFFFFFFFFFFFFFFFF DUP3 AND SWAP1 POP SWAP2 SWAP1 POP JUMP JUMPDEST PUSH0 PUSH2 0x6E3 DUP3 PUSH2 0x6BA JUMP JUMPDEST SWAP1 POP SWAP2 SWAP1 POP JUMP JUMPDEST PUSH2 0x6F3 DUP2 PUSH2 0x6D9 JUMP JUMPDEST DUP2 EQ PUSH2 0x6FD JUMPI PUSH0 DUP1 REVERT JUMPDEST POP JUMP JUMPDEST PUSH0 DUP2 CALLDATALOAD SWAP1 POP PUSH2 0x70E DUP2 PUSH2 0x6EA JUMP JUMPDEST SWAP3 SWAP2 POP POP JUMP JUMPDEST PUSH0 DUP1 REVERT JUMPDEST PUSH0 DUP1 REVERT JUMPDEST PUSH0 PUSH1 0x1F NOT PUSH1 0x1F DUP4 ADD AND SWAP1 POP SWAP2 SWAP1 POP JUMP JUMPDEST PUSH32 0x4E487B7100000000000000000000000000000000000000000000000000000000 PUSH0 MSTORE PUSH1 0x41 PUSH1 0x4 MSTORE PUSH1 0x24 PUSH0 REVERT JUMPDEST PUSH2 0x762 DUP3 PUSH2 0x71C JUMP JUMPDEST DUP2 ADD DUP2 DUP2 LT PUSH8 0xFFFFFFFFFFFFFFFF DUP3 GT OR ISZERO PUSH2 0x781 JUMPI PUSH2 0x780 PUSH2 0x72C JUMP JUMPDEST JUMPDEST DUP1 PUSH1 0x40 MSTORE POP POP POP JUMP JUMPDEST PUSH0 PUSH2 0x793 PUSH2 0x64B JUMP JUMPDEST SWAP1 POP PUSH2 0x79F DUP3 DUP3 PUSH2 0x759 JUMP JUMPDEST SWAP2 SWAP1 POP JUMP JUMPDEST PUSH0 PUSH8 0xFFFFFFFFFFFFFFFF DUP3 GT ISZERO PUSH2 0x7BE JUMPI PUSH2 0x7BD PUSH2 0x72C JUMP JUMPDEST JUMPDEST PUSH2 0x7C7 DUP3 PUSH2 0x71C JUMP JUMPDEST SWAP1 POP PUSH1 0x20 DUP2 ADD SWAP1 POP SWAP2 SWAP1 POP JUMP JUMPDEST DUP3 DUP2 DUP4 CALLDATACOPY PUSH0 DUP4 DUP4 ADD MSTORE POP POP POP JUMP JUMPDEST PUSH0 PUSH2 0x7F4 PUSH2 0x7EF DUP5 PUSH2 0x7A4 JUMP JUMPDEST PUSH2 0x78A JUMP JUMPDEST SWAP1 POP DUP3 DUP2 MSTORE PUSH1 0x20 DUP2 ADD DUP5 DUP5 DUP5 ADD GT ISZERO PUSH2 0x810 JUMPI PUSH2 0x80F PUSH2 0x718 JUMP JUMPDEST JUMPDEST PUSH2 0x81B DUP5 DUP3 DUP6 PUSH2 0x7D4 JUMP JUMPDEST POP SWAP4 SWAP3 POP POP POP JUMP JUMPDEST PUSH0 DUP3 PUSH1 0x1F DUP4 ADD SLT PUSH2 0x837 JUMPI PUSH2 0x836 PUSH2 0x714 JUMP JUMPDEST JUMPDEST DUP2 CALLDATALOAD PUSH2 0x847 DUP5 DUP3 PUSH1 0x20 DUP7 ADD PUSH2 0x7E2 JUMP JUMPDEST SWAP2 POP POP SWAP3 SWAP2 POP POP JUMP JUMPDEST PUSH0 DUP1 PUSH0 PUSH1 0x60 DUP5 DUP7 SUB SLT ISZERO PUSH2 0x867 JUMPI PUSH2 0x866 PUSH2 0x654 JUMP JUMPDEST JUMPDEST PUSH0 PUSH2 0x874 DUP7 DUP3 DUP8 ADD PUSH2 0x700 JUMP JUMPDEST SWAP4 POP POP PUSH1 0x20 DUP5 ADD CALLDATALOAD PUSH8 0xFFFFFFFFFFFFFFFF DUP2 GT ISZERO PUSH2 0x895 JUMPI PUSH2 0x894 PUSH2 0x658 JUMP JUMPDEST JUMPDEST PUSH2 0x8A1 DUP7 DUP3 DUP8 ADD PUSH2 0x823 JUMP JUMPDEST SWAP3 POP POP PUSH1 0x40 DUP5 ADD CALLDATALOAD PUSH8 0xFFFFFFFFFFFFFFFF DUP2 GT ISZERO PUSH2 0x8C2 JUMPI PUSH2 0x8C1 PUSH2 0x658 JUMP JUMPDEST JUMPDEST PUSH2 0x8CE DUP7 DUP3 DUP8 ADD PUSH2 0x823 JUMP JUMPDEST SWAP2 POP POP SWAP3 POP SWAP3 POP SWAP3 JUMP JUMPDEST PUSH0 DUP2 MLOAD SWAP1 POP SWAP2 SWAP1 POP JUMP JUMPDEST PUSH0 DUP3 DUP3 MSTORE PUSH1 0x20 DUP3 ADD SWAP1 POP SWAP3 SWAP2 POP POP JUMP JUMPDEST PUSH0 DUP2 SWAP1 POP PUSH1 0x20 DUP3 ADD SWAP1 POP SWAP2 SWAP1 POP JUMP JUMPDEST PUSH2 0x90A DUP2 PUSH2 0x6D9 JUMP JUMPDEST DUP3 MSTORE POP POP JUMP JUMPDEST PUSH0 DUP2 MLOAD SWAP1 POP SWAP2 SWAP1 POP JUMP JUMPDEST PUSH0 DUP3 DUP3 MSTORE PUSH1 0x20 DUP3 ADD SWAP1 POP SWAP3 SWAP2 POP POP JUMP JUMPDEST PUSH0 JUMPDEST DUP4 DUP2 LT ISZERO PUSH2 0x947 JUMPI DUP1 DUP3 ADD MLOAD DUP2 DUP5 ADD MSTORE PUSH1 0x20 DUP2 ADD SWAP1 POP PUSH2 0x92C JUMP JUMPDEST PUSH0 DUP5 DUP5 ADD MSTORE POP POP POP POP JUMP JUMPDEST PUSH0 PUSH2 0x95C DUP3 PUSH2 0x910 JUMP JUMPDEST PUSH2 0x966 DUP2 DUP6 PUSH2 0x91A JUMP JUMPDEST SWAP4 POP PUSH2 0x976 DUP2 DUP6 PUSH1 0x20 DUP7 ADD PUSH2 0x92A JUMP JUMPDEST PUSH2 0x97F DUP2 PUSH2 0x71C JUMP JUMPDEST DUP5 ADD SWAP2 POP POP SWAP3 SWAP2 POP POP JUMP JUMPDEST PUSH0 DUP2 MLOAD SWAP1 POP SWAP2 SWAP1 POP JUMP JUMPDEST PUSH0 DUP3 DUP3 MSTORE PUSH1 0x20 DUP3 ADD SWAP1 POP SWAP3 SWAP2 POP POP JUMP JUMPDEST PUSH0 DUP2 SWAP1 POP PUSH1 0x20 DUP3 ADD SWAP1 POP SWAP2 SWAP1 POP JUMP JUMPDEST PUSH0 PUSH2 0x9BE DUP4 DUP4 PUSH2 0x901 JUMP JUMPDEST PUSH1 0x20 DUP4 ADD SWAP1 POP SWAP3 SWAP2 POP POP JUMP JUMPDEST PUSH0 PUSH1 0x20 DUP3 ADD SWAP1 POP SWAP2 SWAP1 POP JUMP JUMPDEST PUSH0 PUSH2 0x9E0 DUP3 PUSH2 0x98A JUMP JUMPDEST PUSH2 0x9EA DUP2 DUP6 PUSH2 0x994 JUMP JUMPDEST SWAP4 POP PUSH2 0x9F5 DUP4 PUSH2 0x9A4 JUMP JUMPDEST DUP1 PUSH0 JUMPDEST DUP4 DUP2 LT ISZERO PUSH2 0xA25 JUMPI DUP2 MLOAD PUSH2 0xA0C DUP9 DUP3 PUSH2 0x9B3 JUMP JUMPDEST SWAP8 POP PUSH2 0xA17 DUP4 PUSH2 0x9CA JUMP JUMPDEST SWAP3 POP POP PUSH1 0x1 DUP2 ADD SWAP1 POP PUSH2 0x9F8 JUMP JUMPDEST POP DUP6 SWAP4 POP POP POP POP SWAP3 SWAP2 POP POP JUMP JUMPDEST PUSH0 PUSH1 0x80 DUP4 ADD PUSH0 DUP4 ADD MLOAD PUSH2 0xA47 PUSH0 DUP7 ADD DUP3 PUSH2 0x901 JUMP JUMPDEST POP PUSH1 0x20 DUP4 ADD MLOAD DUP5 DUP3 SUB PUSH1 0x20 DUP7 ADD MSTORE PUSH2 0xA5F DUP3 DUP3 PUSH2 0x952 JUMP JUMPDEST SWAP2 POP POP PUSH1 0x40 DUP4 ADD MLOAD DUP5 DUP3 SUB PUSH1 0x40 DUP7 ADD MSTORE PUSH2 0xA79 DUP3 DUP3 PUSH2 0x952 JUMP JUMPDEST SWAP2 POP POP PUSH1 0x60 DUP4 ADD MLOAD DUP5 DUP3 SUB PUSH1 0x60 DUP7 ADD MSTORE PUSH2 0xA93 DUP3 DUP3 PUSH2 0x9D6 JUMP JUMPDEST SWAP2 POP POP DUP1 SWAP2 POP POP SWAP3 SWAP2 POP POP JUMP JUMPDEST PUSH0 PUSH2 0xAAB DUP4 DUP4 PUSH2 0xA32 JUMP JUMPDEST SWAP1 POP SWAP3 SWAP2 POP POP JUMP JUMPDEST PUSH0 PUSH1 0x20 DUP3 ADD SWAP1 POP SWAP2 SWAP1 POP JUMP JUMPDEST PUSH0 PUSH2 0xAC9 DUP3 PUSH2 0x8D8 JUMP JUMPDEST PUSH2 0xAD3 DUP2 DUP6 PUSH2 0x8E2 JUMP JUMPDEST SWAP4 POP DUP4 PUSH1 0x20 DUP3 MUL DUP6 ADD PUSH2 0xAE5 DUP6 PUSH2 0x8F2 JUMP JUMPDEST DUP1 PUSH0 JUMPDEST DUP6 DUP2 LT ISZERO PUSH2 0xB20 JUMPI DUP5 DUP5 SUB DUP10 MSTORE DUP2 MLOAD PUSH2 0xB01 DUP6 DUP3 PUSH2 0xAA0 JUMP JUMPDEST SWAP5 POP PUSH2 0xB0C DUP4 PUSH2 0xAB3 JUMP JUMPDEST SWAP3 POP PUSH1 0x20 DUP11 ADD SWAP10 POP POP PUSH1 0x1 DUP2 ADD SWAP1 POP PUSH2 0xAE8 JUMP JUMPDEST POP DUP3 SWAP8 POP DUP8 SWAP6 POP POP POP POP POP POP SWAP3 SWAP2 POP POP JUMP JUMPDEST PUSH0 PUSH1 0x20 DUP3 ADD SWAP1 POP DUP2 DUP2 SUB PUSH0 DUP4 ADD MSTORE PUSH2 0xB4A DUP2 DUP5 PUSH2 0xABF JUMP JUMPDEST SWAP1 POP SWAP3 SWAP2 POP POP JUMP JUMPDEST PUSH32 0x4E487B7100000000000000000000000000000000000000000000000000000000 PUSH0 MSTORE PUSH1 0x32 PUSH1 0x4 MSTORE PUSH1 0x24 PUSH0 REVERT JUMPDEST PUSH0 DUP3 DUP3 MSTORE PUSH1 0x20 DUP3 ADD SWAP1 POP SWAP3 SWAP2 POP POP JUMP JUMPDEST PUSH32 0x63616E2774207369676E20747769636500000000000000000000000000000000 PUSH0 DUP3 ADD MSTORE POP JUMP JUMPDEST PUSH0 PUSH2 0xBC3 PUSH1 0x10 DUP4 PUSH2 0xB7F JUMP JUMPDEST SWAP2 POP PUSH2 0xBCE DUP3 PUSH2 0xB8F JUMP JUMPDEST PUSH1 0x20 DUP3 ADD SWAP1 POP SWAP2 SWAP1 POP JUMP JUMPDEST PUSH0 PUSH1 0x20 DUP3 ADD SWAP1 POP DUP2 DUP2 SUB PUSH0 DUP4 ADD MSTORE PUSH2 0xBF0 DUP2 PUSH2 0xBB7 JUMP JUMPDEST SWAP1 POP SWAP2 SWAP1 POP JUMP JUMPDEST PUSH32 0x4E487B7100000000000000000000000000000000000000000000000000000000 PUSH0 MSTORE PUSH1 0x22 PUSH1 0x4 MSTORE PUSH1 0x24 PUSH0 REVERT JUMPDEST PUSH0 PUSH1 0x2 DUP3 DIV SWAP1 POP PUSH1 0x1 DUP3 AND DUP1 PUSH2 0xC3B JUMPI PUSH1 0x7F DUP3 AND SWAP2 POP JUMPDEST PUSH1 0x20 DUP3 LT DUP2 SUB PUSH2 0xC4E JUMPI PUSH2 0xC4D PUSH2 0xBF7 JUMP JUMPDEST JUMPDEST POP SWAP2 SWAP1 POP JUMP JUMPDEST PUSH0 DUP2 SWAP1 POP DUP2 PUSH0 MSTORE PUSH1 0x20 PUSH0 KECCAK256 SWAP1 POP SWAP2 SWAP1 POP JUMP JUMPDEST PUSH0 PUSH1 0x20 PUSH1 0x1F DUP4 ADD DIV SWAP1 POP SWAP2 SWAP1 POP JUMP JUMPDEST PUSH0 DUP3 DUP3 SHL SWAP1 POP SWAP3 SWAP2 POP POP JUMP JUMPDEST PUSH0 PUSH1 0x8 DUP4 MUL PUSH2 0xCB0 PUSH32 0xFFFFFFFFFFFFFFFFFFFFFFFFFFFFFFFFFFFFFFFFFFFFFFFFFFFFFFFFFFFFFFFF DUP3 PUSH2 0xC75 JUMP JUMPDEST PUSH2 0xCBA DUP7 DUP4 PUSH2 0xC75 JUMP JUMPDEST SWAP6 POP DUP1 NOT DUP5 AND SWAP4 POP DUP1 DUP7 AND DUP5 OR SWAP3 POP POP POP SWAP4 SWAP3 POP POP POP JUMP JUMPDEST PUSH0 DUP2 SWAP1 POP SWAP2 SWAP1 POP JUMP JUMPDEST PUSH0 PUSH2 0xCF5 PUSH2 0xCF0 PUSH2 0xCEB DUP5 PUSH2 0x65C JUMP JUMPDEST PUSH2 0xCD2 JUMP JUMPDEST PUSH2 0x65C JUMP JUMPDEST SWAP1 POP SWAP2 SWAP1 POP JUMP JUMPDEST PUSH0 DUP2 SWAP1 POP SWAP2 SWAP1 POP JUMP JUMPDEST PUSH2 0xD0E DUP4 PUSH2 0xCDB JUMP JUMPDEST PUSH2 0xD22 PUSH2 0xD1A DUP3 PUSH2 0xCFC JUMP JUMPDEST DUP5 DUP5 SLOAD PUSH2 0xC81 JUMP JUMPDEST DUP3 SSTORE POP POP POP POP JUMP JUMPDEST PUSH0 SWAP1 JUMP JUMPDEST PUSH2 0xD36 PUSH2 0xD2A JUMP JUMPDEST PUSH2 0xD41 DUP2 DUP5 DUP5 PUSH2 0xD05 JUMP JUMPDEST POP POP POP JUMP JUMPDEST JUMPDEST DUP2 DUP2 LT ISZERO PUSH2 0xD64 JUMPI PUSH2 0xD59 PUSH0 DUP3 PUSH2 0xD2E JUMP JUMPDEST PUSH1 0x1 DUP2 ADD SWAP1 POP PUSH2 0xD47 JUMP JUMPDEST POP POP JUMP JUMPDEST PUSH1 0x1F DUP3 GT ISZERO PUSH2 0xDA9 JUMPI PUSH2 0xD7A DUP2 PUSH2 0xC54 JUMP JUMPDEST PUSH2 0xD83 DUP5 PUSH2 0xC66 JUMP JUMPDEST DUP2 ADD PUSH1 0x20 DUP6 LT ISZERO PUSH2 0xD92 JUMPI DUP2 SWAP1 POP JUMPDEST PUSH2 0xDA6 PUSH2 0xD9E DUP6 PUSH2 0xC66 JUMP JUMPDEST DUP4 ADD DUP3 PUSH2 0xD46 JUMP JUMPDEST POP POP JUMPDEST POP POP POP JUMP JUMPDEST PUSH0 DUP3 DUP3 SHR SWAP1 POP SWAP3 SWAP2 POP POP JUMP JUMPDEST PUSH0 PUSH2 0xDC9 PUSH0 NOT DUP5 PUSH1 0x8 MUL PUSH2 0xDAE JUMP JUMPDEST NOT DUP1 DUP4 AND SWAP2 POP POP SWAP3 SWAP2 POP POP JUMP JUMPDEST PUSH0 PUSH2 0xDE1 DUP4 DUP4 PUSH2 0xDBA JUMP JUMPDEST SWAP2 POP DUP3 PUSH1 0x2 MUL DUP3 OR SWAP1 POP SWAP3 SWAP2 POP POP JUMP JUMPDEST PUSH2 0xDFA DUP3 PUSH2 0x910 JUMP JUMPDEST PUSH8 0xFFFFFFFFFFFFFFFF DUP2 GT ISZERO PUSH2 0xE13 JUMPI PUSH2 0xE12 PUSH2 0x72C JUMP JUMPDEST JUMPDEST PUSH2 0xE1D DUP3 SLOAD PUSH2 0xC24 JUMP JUMPDEST PUSH2 0xE28 DUP3 DUP3 DUP6 PUSH2 0xD68 JUMP JUMPDEST PUSH0 PUSH1 0x20 SWAP1 POP PUSH1 0x1F DUP4 GT PUSH1 0x1 DUP2 EQ PUSH2 0xE59 JUMPI PUSH0 DUP5 ISZERO PUSH2 0xE47 JUMPI DUP3 DUP8 ADD MLOAD SWAP1 POP JUMPDEST PUSH2 0xE51 DUP6 DUP3 PUSH2 0xDD6 JUMP JUMPDEST DUP7 SSTORE POP PUSH2 0xEB8 JUMP JUMPDEST PUSH1 0x1F NOT DUP5 AND PUSH2 0xE67 DUP7 PUSH2 0xC54 JUMP JUMPDEST PUSH0 JUMPDEST DUP3 DUP2 LT ISZERO PUSH2 0xE8E JUMPI DUP5 DUP10 ADD MLOAD DUP3 SSTORE PUSH1 0x1 DUP3 ADD SWAP2 POP PUSH1 0x20 DUP6 ADD SWAP5 POP PUSH1 0x20 DUP2 ADD SWAP1 POP PUSH2 0xE69 JUMP JUMPDEST DUP7 DUP4 LT ISZERO PUSH2 0xEAB JUMPI DUP5 DUP10 ADD MLOAD PUSH2 0xEA7 PUSH1 0x1F DUP10 AND DUP3 PUSH2 0xDBA JUMP JUMPDEST DUP4 SSTORE POP JUMPDEST PUSH1 0x1 PUSH1 0x2 DUP9 MUL ADD DUP9 SSTORE POP POP POP JUMPDEST POP POP POP POP POP POP JUMP INVALID LOG2 PUSH5 0x6970667358 0x22 SLT KECCAK256 0xDD JUMPI 0x2D OR 0xB4 0xA9 0xC9 0x4C 0xA8 CREATE2 ADD 0xEA DUP11 SWAP3 SWAP10 MSTORE 0x21 0xE5 PUSH5 0x79BB1431F8 0xDF PUSH9 0x332DDC07777664736F PUSH13 0x63430008180033000000000000 "
				},
				"gasEstimates": {
					"creation": {
						"codeDepositCost": "766000",
						"executionCost": "797",
						"totalCost": "766797"
					},
					"external": {
						"AddCandidate(address,string,string)": "infinite",
						"ViewCandidate()": "infinite",
						"VoteCandidate(uint256)": "53403"
					}
				},
				"methodIdentifiers": {
					"AddCandidate(address,string,string)": "bd47a8dd",
					"ViewCandidate()": "d7d69061",
					"VoteCandidate(uint256)": "529d4992"
				}
			},
			"storageLayout": {
				"storage": [
					{
						"astId": 3,
						"contract": "contracts/Voting.sol:Voting",
						"label": "owner",
						"offset": 0,
						"slot": "0",
						"type": "t_address"
					},
					{
						"astId": 17,
						"contract": "contracts/Voting.sol:Voting",
						"label": "hasVoted",
						"offset": 0,
						"slot": "1",
						"type": "t_mapping(t_address,t_bool)"
					},
					{
						"astId": 21,
						"contract": "contracts/Voting.sol:Voting",
						"label": "votingDetailsArray",
						"offset": 0,
						"slot": "2",
						"type": "t_array(t_struct(VotingDetails)13_storage)dyn_storage"
					}
				],
				"types": {
					"t_address": {
						"encoding": "inplace",
						"label": "address",
						"numberOfBytes": "20"
					},
					"t_array(t_address)dyn_storage": {
						"base": "t_address",
						"encoding": "dynamic_array",
						"label": "address[]",
						"numberOfBytes": "32"
					},
					"t_array(t_struct(VotingDetails)13_storage)dyn_storage": {
						"base": "t_struct(VotingDetails)13_storage",
						"encoding": "dynamic_array",
						"label": "struct Voting.VotingDetails[]",
						"numberOfBytes": "32"
					},
					"t_bool": {
						"encoding": "inplace",
						"label": "bool",
						"numberOfBytes": "1"
					},
					"t_mapping(t_address,t_bool)": {
						"encoding": "mapping",
						"key": "t_address",
						"label": "mapping(address => bool)",
						"numberOfBytes": "32",
						"value": "t_bool"
					},
					"t_string_storage": {
						"encoding": "bytes",
						"label": "string",
						"numberOfBytes": "32"
					},
					"t_struct(VotingDetails)13_storage": {
						"encoding": "inplace",
						"label": "struct Voting.VotingDetails",
						"members": [
							{
								"astId": 5,
								"contract": "contracts/Voting.sol:Voting",
								"label": "CandidateAddress",
								"offset": 0,
								"slot": "0",
								"type": "t_address"
							},
							{
								"astId": 7,
								"contract": "contracts/Voting.sol:Voting",
								"label": "CandidateName",
								"offset": 0,
								"slot": "1",
								"type": "t_string_storage"
							},
							{
								"astId": 9,
								"contract": "contracts/Voting.sol:Voting",
								"label": "CandidateParty",
								"offset": 0,
								"slot": "2",
								"type": "t_string_storage"
							},
							{
								"astId": 12,
								"contract": "contracts/Voting.sol:Voting",
								"label": "Voters",
								"offset": 0,
								"slot": "3",
								"type": "t_array(t_address)dyn_storage"
							}
						],
						"numberOfBytes": "128"
					}
				}
			},
			"userdoc": {
				"kind": "user",
				"methods": {},
				"version": 1
			}
		}
	}
}